{"src/nine527.sol":{"nine527":{"abi":[{"inputs":[{"internalType":"string","name":"tokenName_","type":"string"},{"internalType":"string","name":"tokenSymbol_","type":"string"},{"internalType":"uint256","name":"treasuryBP_","type":"uint256"},{"internalType":"address","name":"deployer_","type":"address"}],"stateMutability":"nonpayable","type":"constructor"},{"inputs":[{"internalType":"address","name":"spender","type":"address"},{"internalType":"uint256","name":"allowance","type":"uint256"},{"internalType":"uint256","name":"needed","type":"uint256"}],"name":"ERC20InsufficientAllowance","type":"error"},{"inputs":[{"internalType":"address","name":"sender","type":"address"},{"internalType":"uint256","name":"balance","type":"uint256"},{"internalType":"uint256","name":"needed","type":"uint256"}],"name":"ERC20InsufficientBalance","type":"error"},{"inputs":[{"internalType":"address","name":"approver","type":"address"}],"name":"ERC20InvalidApprover","type":"error"},{"inputs":[{"internalType":"address","name":"receiver","type":"address"}],"name":"ERC20InvalidReceiver","type":"error"},{"inputs":[{"internalType":"address","name":"sender","type":"address"}],"name":"ERC20InvalidSender","type":"error"},{"inputs":[{"internalType":"address","name":"spender","type":"address"}],"name":"ERC20InvalidSpender","type":"error"},{"inputs":[],"name":"ReentrancyGuardReentrantCall","type":"error"},{"anonymous":false,"inputs":[{"indexed":true,"internalType":"address","name":"owner","type":"address"},{"indexed":true,"internalType":"address","name":"spender","type":"address"},{"indexed":false,"internalType":"uint256","name":"value","type":"uint256"}],"name":"Approval","type":"event"},{"anonymous":false,"inputs":[{"indexed":true,"internalType":"address","name":"user","type":"address"},{"indexed":false,"internalType":"uint256","name":"tokenAmt","type":"uint256"},{"indexed":false,"internalType":"uint256","name":"ethAmt","type":"uint256"}],"name":"BuyToken","type":"event"},{"anonymous":false,"inputs":[{"indexed":true,"internalType":"address","name":"user","type":"address"},{"indexed":false,"internalType":"uint256","name":"tokenAmt","type":"uint256"},{"indexed":false,"internalType":"uint256","name":"ethAmt","type":"uint256"}],"name":"SellToken","type":"event"},{"anonymous":false,"inputs":[{"indexed":true,"internalType":"address","name":"from","type":"address"},{"indexed":true,"internalType":"address","name":"to","type":"address"},{"indexed":false,"internalType":"uint256","name":"value","type":"uint256"}],"name":"Transfer","type":"event"},{"inputs":[],"name":"CONTRACT_CHECK_BUY_LEVEL","outputs":[{"internalType":"uint256","name":"","type":"uint256"}],"stateMutability":"view","type":"function"},{"inputs":[],"name":"CONTRACT_CHECK_SELL_LEVEL","outputs":[{"internalType":"uint256","name":"","type":"uint256"}],"stateMutability":"view","type":"function"},{"inputs":[],"name":"DEPLOYER","outputs":[{"internalType":"address","name":"","type":"address"}],"stateMutability":"view","type":"function"},{"inputs":[],"name":"INITIAL_TOKEN_RESERVE","outputs":[{"internalType":"uint256","name":"","type":"uint256"}],"stateMutability":"view","type":"function"},{"inputs":[],"name":"INITIAL_VIRTUAL_ETH","outputs":[{"internalType":"uint256","name":"","type":"uint256"}],"stateMutability":"view","type":"function"},{"inputs":[],"name":"MARKET_BUY_ETH_LIMIT","outputs":[{"internalType":"uint256","name":"","type":"uint256"}],"stateMutability":"view","type":"function"},{"inputs":[],"name":"MARKET_OPEN_STAGE","outputs":[{"internalType":"uint256","name":"","type":"uint256"}],"stateMutability":"view","type":"function"},{"inputs":[],"name":"MARKET_WHITELIST_BASE_AMT","outputs":[{"internalType":"uint256","name":"","type":"uint256"}],"stateMutability":"view","type":"function"},{"inputs":[],"name":"MARKET_WHITELIST_TOKEN","outputs":[{"internalType":"address","name":"","type":"address"}],"stateMutability":"view","type":"function"},{"inputs":[],"name":"MARKET_WHITELIST_TOKEN_BP","outputs":[{"internalType":"uint256","name":"","type":"uint256"}],"stateMutability":"view","type":"function"},{"inputs":[],"name":"MAX_TREASURY_BP","outputs":[{"internalType":"uint256","name":"","type":"uint256"}],"stateMutability":"view","type":"function"},{"inputs":[],"name":"SELL_BURN_BP","outputs":[{"internalType":"uint256","name":"","type":"uint256"}],"stateMutability":"view","type":"function"},{"inputs":[],"name":"SELL_TREASURY_BP","outputs":[{"internalType":"uint256","name":"","type":"uint256"}],"stateMutability":"view","type":"function"},{"inputs":[],"name":"TRANSFER_BURN_BP","outputs":[{"internalType":"uint256","name":"","type":"uint256"}],"stateMutability":"view","type":"function"},{"inputs":[{"internalType":"address","name":"owner","type":"address"},{"internalType":"address","name":"spender","type":"address"}],"name":"allowance","outputs":[{"internalType":"uint256","name":"","type":"uint256"}],"stateMutability":"view","type":"function"},{"inputs":[{"internalType":"address","name":"spender","type":"address"},{"internalType":"uint256","name":"value","type":"uint256"}],"name":"approve","outputs":[{"internalType":"bool","name":"","type":"bool"}],"stateMutability":"nonpayable","type":"function"},{"inputs":[{"internalType":"address","name":"account","type":"address"}],"name":"balanceOf","outputs":[{"internalType":"uint256","name":"","type":"uint256"}],"stateMutability":"view","type":"function"},{"inputs":[{"internalType":"uint256","name":"minTokenAmt","type":"uint256"},{"internalType":"uint256","name":"expireTimestamp","type":"uint256"}],"name":"buyToken","outputs":[],"stateMutability":"payable","type":"function"},{"inputs":[],"name":"decimals","outputs":[{"internalType":"uint8","name":"","type":"uint8"}],"stateMutability":"view","type":"function"},{"inputs":[{"internalType":"uint256","name":"ethAmount","type":"uint256"}],"name":"estimateBuyReturn","outputs":[{"internalType":"uint256","name":"","type":"uint256"}],"stateMutability":"view","type":"function"},{"inputs":[{"internalType":"uint256","name":"tokenAmount","type":"uint256"}],"name":"estimateSellReturn","outputs":[{"internalType":"uint256","name":"","type":"uint256"}],"stateMutability":"view","type":"function"},{"inputs":[],"name":"getEthReserve","outputs":[{"internalType":"uint256","name":"","type":"uint256"}],"stateMutability":"view","type":"function"},{"inputs":[],"name":"getTokenInfo","outputs":[{"internalType":"string","name":"tokenName","type":"string"},{"internalType":"string","name":"tokenSymbol","type":"string"},{"internalType":"address","name":"deployer","type":"address"},{"internalType":"uint256","name":"treasuryFeeBP","type":"uint256"},{"internalType":"uint256","name":"currentPrice","type":"uint256"},{"internalType":"uint256","name":"ethReserve","type":"uint256"},{"internalType":"uint256","name":"tokenReserve","type":"uint256"}],"stateMutability":"view","type":"function"},{"inputs":[],"name":"getTokenPrice","outputs":[{"internalType":"uint256","name":"","type":"uint256"}],"stateMutability":"view","type":"function"},{"inputs":[],"name":"getTokenReserve","outputs":[{"internalType":"uint256","name":"","type":"uint256"}],"stateMutability":"view","type":"function"},{"inputs":[],"name":"name","outputs":[{"internalType":"string","name":"","type":"string"}],"stateMutability":"view","type":"function"},{"inputs":[{"internalType":"uint256","name":"tokenAmt","type":"uint256"},{"internalType":"uint256","name":"minEthAmt","type":"uint256"},{"internalType":"uint256","name":"expireTimestamp","type":"uint256"}],"name":"sellToken","outputs":[],"stateMutability":"nonpayable","type":"function"},{"inputs":[{"internalType":"address","name":"newTreasury","type":"address"}],"name":"setTreasuryAddr","outputs":[],"stateMutability":"nonpayable","type":"function"},{"inputs":[],"name":"symbol","outputs":[{"internalType":"string","name":"","type":"string"}],"stateMutability":"view","type":"function"},{"inputs":[],"name":"totalSupply","outputs":[{"internalType":"uint256","name":"","type":"uint256"}],"stateMutability":"view","type":"function"},{"inputs":[{"internalType":"address","name":"to","type":"address"},{"internalType":"uint256","name":"value","type":"uint256"}],"name":"transfer","outputs":[{"internalType":"bool","name":"","type":"bool"}],"stateMutability":"nonpayable","type":"function"},{"inputs":[{"internalType":"address","name":"from","type":"address"},{"internalType":"address","name":"to","type":"address"},{"internalType":"uint256","name":"value","type":"uint256"}],"name":"transferFrom","outputs":[{"internalType":"bool","name":"","type":"bool"}],"stateMutability":"nonpayable","type":"function"},{"inputs":[],"name":"treasuryAddr","outputs":[{"internalType":"address","name":"","type":"address"}],"stateMutability":"view","type":"function"},{"inputs":[],"name":"treasuryAmtTotal","outputs":[{"internalType":"uint256","name":"","type":"uint256"}],"stateMutability":"view","type":"function"},{"inputs":[{"internalType":"uint256","name":"amt","type":"uint256"}],"name":"withdrawTreasury","outputs":[],"stateMutability":"nonpayable","type":"function"},{"stateMutability":"payable","type":"receive"}],"evm":{"bytecode":{"linkReferences":{},"object":"60c06040523461073957611ed8803803806100198161073d565b9283398101906080818303126107395780516001600160401b0381116107395782610045918301610762565b602082015190926001600160401b03821161073957610065918301610762565b604082015160609092015190926001600160a01b038216908183036107395780516001600160401b0381116103d457600354600181811c9116801561072f575b60208210146103b657601f81116106c1575b50806020601f821160011461065d575f91610652575b508160011b915f199060031b1c1916176003555b84516001600160401b0381116103d457600454600181811c91168015610648575b60208210146103b657601f81116105da575b50806020601f8211600114610576575f9161056b575b508160011b915f199060031b1c1916176004555b60017f9b779b17422d0df92223018b32b4d1fa46e071723d6817e2486d003becc55f005580511561053e5784511561050f5761012c84116104d9578051906001600160401b0382116103d45760085490600182811c921680156104cf575b60208310146103b65781601f849311610459575b50602090601f83116001146103f3575f926103e8575b50508160011b915f199060031b1c1916176008555b83516001600160401b0381116103d457600954600181811c911680156103ca575b60208210146103b657601f8111610348575b50602094601f82116001146102e5579481929394955f926102da575b50508160011b915f199060031b1c1916176009555b6102d55750335b6080819052600580546001600160a01b0319166001600160a01b0390921691909117905560a0526102986b033b2e3c9fd0803ce80000007311111111111111111111111111111111111111115f6107b3565b60405161162090816108b882396080518181816102ab01526103c8015260a0518181816103f7015281816107aa01528181610a6b01526112390152f35b610246565b015190505f8061022a565b601f1982169560095f52805f20915f5b88811061033057508360019596979810610318575b505050811b0160095561023f565b01515f1960f88460031b161c191690555f808061030a565b919260206001819286850151815501940192016102f5565b8181111561020e5760095f52601f820160051c7f6e1540171b6c0c960b71a7020d9f60077f6af931a8bbf590da0223dacf75c7af602084106103ae575b81601f9101920160051c03905f5b8281106103a157505061020e565b5f82820155600101610393565b5f9150610385565b634e487b7160e01b5f52602260045260245ffd5b90607f16906101fc565b634e487b7160e01b5f52604160045260245ffd5b015190505f806101c6565b60085f9081528281209350601f198516905b8181106104415750908460019594939210610429575b505050811b016008556101db565b01515f1960f88460031b161c191690555f808061041b565b92936020600181928786015181550195019301610405565b828111156101b05760085f52909150601f830160051c7ff3f7a9fe364faab93b216da50a3214154f22a0a2b415b23a84c8169e8b636ee3602085106104c7575b849392601f0160051c82900391015f5b8281106104b75750506101b0565b5f818301558594506001016104a9565b5f9150610499565b91607f169161019c565b60405162461bcd60e51b815260206004820152600e60248201526d21747265617375727942503e332560901b6044820152606490fd5b60405162461bcd60e51b8152602060048201526007602482015266085cde5b589bdb60ca1b6044820152606490fd5b60405162461bcd60e51b8152602060048201526005602482015264216e616d6560d81b6044820152606490fd5b90508601515f61012a565b60045f9081528181209250601f198416905b8181106105c2575090836001949392106105aa575b5050811b0160045561013e565b8801515f1960f88460031b161c191690555f8061059d565b9192602060018192868d015181550194019201610588565b818111156101145760045f52601f820160051c7f8a35acfbc15ff81a39ae7d344fd709f28e8600b4aa8c65c6b64bfe7fe36bd19b60208410610640575b81601f9101920160051c03905f5b828110610633575050610114565b5f82820155600101610625565b5f9150610617565b90607f1690610102565b90508201515f6100cd565b60035f9081528181209250601f198416905b8181106106a957509083600194939210610691575b5050811b016003556100e1565b8401515f1960f88460031b161c191690555f80610684565b9192602060018192868901518155019401920161066f565b818111156100b75760035f52601f820160051c7fc2575a0e9e593c00f959f8c92f12db2869c3395a3b0502d05e2516446f71f85b60208410610727575b81601f9101920160051c03905f5b82811061071a5750506100b7565b5f8282015560010161070c565b5f91506106fe565b90607f16906100a5565b5f80fd5b6040519190601f01601f191682016001600160401b038111838210176103d457604052565b81601f82011215610739578051906001600160401b0382116103d457610791601f8301601f191660200161073d565b928284526020838301011161073957815f9260208093018386015e8301015290565b6001600160a01b031680159291831561087557600254838101809111610861576002555b6001600160a01b03168015929091907fddf252ad1be2c89b69c2b068fc378daa952ba7f163c4a11628f55a4df523b3ef90602090851561084c5780600254036002555b604051908152a38115610844575b508015610838575b61083657565b565b5060ff60075416610830565b90505f610828565b845f525f825260405f2081815401905561081a565b634e487b7160e01b5f52601160045260245ffd5b815f525f60205260405f205483811061089c578390835f525f6020520360405f20556107d7565b91905063391434e360e21b5f5260045260245260445260645ffdfe6080604052600436101561001a575b3615610018575f80fd5b005b5f5f3560e01c8063057466ea14610e9857806306fdde0314610da4578063095ea7b314610cfc57806311f1fc9914610c5e57806317f185eb14610c4257806318160ddd14610c255780631efbe89514610c035780631f181d571461096e57806323b872dd1461088c57806325653eca1461026957806330d9a62a14610863578063313ce56714610847578063314c7f6914610828578063327ba06c146102695780633dae21aa1461080c57806345b18f25146107e85780634b94f50e146107cd578063704c6d091461079257806370a082311461075b578063829f743f146102695780638a9118c01461074057806395d89b41146106435780639ff2a2681461061c578063a10499b114610269578063a7e05b9c1461059c578063a9059cbb1461056a578063abb1dc44146102da578063c1b8411a14610295578063cf266bc314610269578063d52b91641461026e578063dc6538e214610269578063dd62ed3e14610216578063eb0ee934146101fa578063f1d9f88b146101c65763ff71b4e5146101a6575061000e565b346101c357806003193601126101c3576020600654604051908152f35b80fd5b50346101c357806003193601126101c3575f5160206115ab5f395f51905f525f525f602052602060405f2054604051908152f35b50346101c357806003193601126101c357602090604051908152f35b50346101c35760403660031901126101c3576040610232611079565b9161023b61108f565b9260018060a01b031681526001602052209060018060a01b03165f52602052602060405f2054604051908152f35b6110a5565b50346101c35760203660031901126101c357602061028d60043561131e565b604051908152f35b50346101c357806003193601126101c3576040517f00000000000000000000000000000000000000000000000000000000000000006001600160a01b03168152602090f35b50346101c357806003193601126101c3576102f3611281565b6102fb6112f6565b905f5160206115ab5f395f51905f525f525f60205260405f20546040519284600854908160011c91600181168015610560575b60208410811461054c57838852879291811561052d57506001146104cf575b61035992500385611189565b6040519480600954908160011c916001811680156104c5575b6020841081146104b157838a5290811561048a5750600114610431575b5050856103a46103b8976103c6930382611189565b60405196879660e0885260e0880190611055565b908682036020880152611055565b7f00000000000000000000000000000000000000000000000000000000000000006001600160a01b031660408601527f00000000000000000000000000000000000000000000000000000000000000006060860152608085019390935260a084015260c08301520390f35b6009815291507f6e1540171b6c0c960b71a7020d9f60077f6af931a8bbf590da0223dacf75c7af5b8183106104705750508501602001856103a461038f565b6001816020929493945483858c0101520191019190610459565b60ff19166020808b019190915292151560051b890190920192508791506103a4905061038f565b634e487b7160e01b83526022600452602483fd5b92607f1692610372565b50600887529086907ff3f7a9fe364faab93b216da50a3214154f22a0a2b415b23a84c8169e8b636ee35b8183106105115750509060206103599282010161034d565b6020919350806001915483858b010152019101909186926104f9565b6020925061035994915060ff191682840152151560051b82010161034d565b634e487b7160e01b89526022600452602489fd5b92607f169261032e565b50346101c35760403660031901126101c357610591610587611079565b6024359033611467565b602060405160018152f35b50346101c35760203660031901126101c3576105b6611079565b600554906105ce336001600160a01b038416146111c0565b6001600160a01b03169081156105ef576001600160a01b0319161760055580f35b60405162461bcd60e51b8152602060048201526005602482015264217a65726f60d81b6044820152606490fd5b50346101c357806003193601126101c357604051676765c793fa10079d601b1b8152602090f35b50346101c357806003193601126101c3576040519080600454908160011c91600181168015610736575b6020841081146104b15783865290811561070f57506001146106b2575b6106ae8461069a81860382611189565b604051918291602083526020830190611055565b0390f35b600481527f8a35acfbc15ff81a39ae7d344fd709f28e8600b4aa8c65c6b64bfe7fe36bd19b939250905b8082106106f55750909150810160200161069a8261068a565b9192600181602092548385880101520191019092916106dc565b60ff191660208087019190915292151560051b8501909201925061069a915083905061068a565b92607f169261066d565b50346101c357806003193601126101c357602061028d6112f6565b50346101c35760203660031901126101c357604060209161077a611079565b6001600160a01b031681528083522054604051908152f35b50346101c357806003193601126101c35760206040517f00000000000000000000000000000000000000000000000000000000000000008152f35b50346101c357806003193601126101c357602061028d611281565b50346101c357806003193601126101c35760206040516801236efcbcbb3400008152f35b50346101c357806003193601126101c357602060405160018152f35b50346101c35760203660031901126101c357602061028d6004356111f8565b50346101c357806003193601126101c357602060405160128152f35b50346101c357806003193601126101c3576005546040516001600160a01b039091168152602090f35b50346101c35760603660031901126101c3576108a6611079565b6108ae61108f565b6001600160a01b038216808452600160209081526040808620335f908152925290205460443593915f1982106108eb575b50506105919350611467565b84821061095357801561093f57331561092b5785604091610591975260016020522060018060a01b0333165f526020528360405f20910390555f806108df565b634a1406b160e11b86526004869052602486fd5b63e602df0560e01b86526004869052602486fd5b6064868684637dc7a0d960e11b835233600452602452604452fd5b34610bff576060366003190112610bff57600435602435604435610990611363565b8215610bd1578115610ba257806109b09115908115610b97575b506110bf565b6109ba5f3361139b565b476801236efcbcbb34000001806801236efcbcbb34000011610b83576109e6610a2e9160065490611102565b5f5160206115ab5f395f51905f525f525f602052610a2860405f2054610a23610a19610a1288846110f5565b928561110f565b8260011c906110f5565b611122565b90611102565b908115610b5457610a47600160ff196007541617600755565b610a5f835f5160206115ab5f395f51905f52336114a3565b6007805460ff191690557f00000000000000000000000000000000000000000000000000000000000000008015610b30575f808093610ac7610abe612710610aa885978a61110f565b04610ab5816006546110f5565b60065588611102565b91821015611140565b818115610b27575b3390f115610b1c575b60405191825260208201527fa8ff15eb642b39da3ab82bb74a87b76cc3e1aef2b82b70bc2a35458386db29aa60403392a260015f5160206115cb5f395f51905f5255005b6040513d5f823e3d90fd5b506108fc610acf565b50610b3d90821015611140565b5f808080843382f1610ad8576040513d5f823e3d90fd5b60405162461bcd60e51b8152602060048201526007602482015266042deeae88ae8d60cb1b6044820152606490fd5b634e487b7160e01b5f52601160045260245ffd5b9050421115846109aa565b60405162461bcd60e51b8152602060048201526007602482015266042dad2dc8ae8d60cb1b6044820152606490fd5b60405162461bcd60e51b815260206004820152600660248201526510ba37b5b2b760d11b6044820152606490fd5b5f80fd5b34610bff575f366003190112610bff576020604051678ac7230489e800008152f35b34610bff575f366003190112610bff576020600254604051908152f35b34610bff575f366003190112610bff57602060405161012c8152f35b34610bff576020366003190112610bff576005546001600160a01b0316600435610c893383146111c0565b60065491828211610cc0575f8080848194610ca48289611102565b600655828215610cb7575bf115610b1c57005b506108fc610caf565b60405162461bcd60e51b8152602060048201526014602482015273616d74206578636565647320747265617375727960601b6044820152606490fd5b34610bff576040366003190112610bff57610d15611079565b602435903315610d91576001600160a01b0316908115610d7e57335f52600160205260405f20825f526020528060405f20556040519081527f8c5be1e5ebec7d5bd14f71427d1e84f3dd0314c0f7b2291e5b200ac8c7c3b92560203392a3602060405160018152f35b634a1406b160e11b5f525f60045260245ffd5b63e602df0560e01b5f525f60045260245ffd5b34610bff575f366003190112610bff576040515f6003548060011c90600181168015610e8e575b602083108114610e7a57828552908115610e565750600114610df8575b6106ae8361069a81850382611189565b60035f9081527fc2575a0e9e593c00f959f8c92f12db2869c3395a3b0502d05e2516446f71f85b939250905b808210610e3c5750909150810160200161069a610de8565b919260018160209254838588010152019101909291610e24565b60ff191660208086019190915291151560051b8401909101915061069a9050610de8565b634e487b7160e01b5f52602260045260245ffd5b91607f1691610dcb565b6040366003190112610bff57600435602435610eb2611363565b341561102a578115610ff95780610ed19115908115610fee57506110bf565b476801236efcbcbb34000001806801236efcbcbb34000011610b8357610efd610f319160065490611102565b610a28610f0a3483611102565b915f5160206115ab5f395f51905f525f525f602052610a23610a1960405f2054809561110f565b908115610fbd57610f4490821015611140565b610f56600160ff196007541617600755565b610f6e81335f5160206115ab5f395f51905f526114a3565b60ff19600754166007556040519081523460208201527ff6f342132c7de5e5a1e99c8efae544c94731f3ff093f5c3c97c6973d9415cdfb60403392a260015f5160206115cb5f395f51905f5255005b60405162461bcd60e51b815260206004820152600960248201526810b7baba2a37b5b2b760b91b6044820152606490fd5b9050421115836109aa565b60405162461bcd60e51b815260206004820152600960248201526810b6b4b72a37b5b2b760b91b6044820152606490fd5b606460405162461bcd60e51b8152602060048201526004602482015263042cae8d60e31b6044820152fd5b805180835260209291819084018484015e5f828201840152601f01601f1916010190565b600435906001600160a01b0382168203610bff57565b602435906001600160a01b0382168203610bff57565b34610bff575f366003190112610bff5760206040515f8152f35b156110c657565b60405162461bcd60e51b81526020600482015260076024820152662165787069726560c81b6044820152606490fd5b91908201809211610b8357565b91908203918211610b8357565b81810292918115918404141715610b8357565b811561112c570490565b634e487b7160e01b5f52601260045260245ffd5b1561114757565b60405162461bcd60e51b815260206004820152601a602482015279125394d551919250d251539517d3d55514155517d05353d5539560321b6044820152606490fd5b601f909101601f19168101906001600160401b038211908210176111ac57604052565b634e487b7160e01b5f52604160045260245ffd5b156111c757565b60405162461bcd60e51b815260206004820152600960248201526821747265617375727960b81b6044820152606490fd5b801561127c5761123790610a2861120d6112f6565b915f5160206115ab5f395f51905f525f525f602052610a23610a19610a1260405f205493846110f5565b7f000000000000000000000000000000000000000000000000000000000000000080611261575090565b90612710611272611279938361110f565b0490611102565b90565b505f90565b6112896112f6565b5f5160206115ab5f395f51905f525f9081526020527ff043c50fe795c69f30b8ff78b84032dc53a9d87ca283ae10a1dacfbb648e83ef5480156112f057670de0b6b3a7640000820291808304670de0b6b3a76400001490151715610b835761127991611122565b50505f90565b476801236efcbcbb34000001806801236efcbcbb34000011610b835760065461127991611102565b801561127c5761127990610a2861133d6113366112f6565b92836110f5565b5f5160206115ab5f395f51905f525f525f602052610a23610a1960405f2054809561110f565b60025f5160206115cb5f395f51905f52541461138c5760025f5160206115cb5f395f51905f5255565b633ee5aeb560e01b5f5260045ffd5b8115611463576001600160a01b0381165f8181526020819052604090205415611413575f5160206115ab5f395f51905f52036113d5575050565b816113df91611590565b5f5160206115ab5f395f51905f525f525f60205260405f205461140481600254611102565b908115158061145a575b611418575b505050565b61142592610a239161110f565b8061142d5750565b611445905f5f5160206115ab5f395f51905f526114a3565b565b634b637e8f60e11b5f525f60045260245ffd5b5080151561140e565b5050565b91906001600160a01b03831615611447576001600160a01b0381161561149057611445926114a3565b63ec442f0560e01b5f525f60045260245ffd5b6001600160a01b031680159291831561154e576114c2836002546110f5565b6002555b6001600160a01b03168015929091907fddf252ad1be2c89b69c2b068fc378daa952ba7f163c4a11628f55a4df523b3ef9060209085156115395780600254036002555b604051908152a38115611531575b508015611525575b61144557565b5060ff6007541661151f565b90505f611517565b845f525f825260405f20818154019055611509565b815f525f60205260405f2054838110611575578390835f525f6020520360405f20556114c6565b91905063391434e360e21b5f5260045260245260445260645ffd5b906001600160a01b03821615611447575f611445926114a356fe00000000000000000000000011111111111111111111111111111111111111119b779b17422d0df92223018b32b4d1fa46e071723d6817e2486d003becc55f00a2646970667358221220c6a87d6b161d6f4131c3c5305991195aabb9394276581876fac2d37e759367a364736f6c63430008230033","opcodes":"PUSH1 0xC0 PUSH1 0x40 MSTORE CALLVALUE PUSH2 0x739 JUMPI PUSH2 0x1ED8 DUP1 CODESIZE SUB DUP1 PUSH2 0x19 DUP2 PUSH2 0x73D JUMP JUMPDEST SWAP3 DUP4 CODECOPY DUP2 ADD SWAP1 PUSH1 0x80 DUP2 DUP4 SUB SLT PUSH2 0x739 JUMPI DUP1 MLOAD PUSH1 0x1 PUSH1 0x1 PUSH1 0x40 SHL SUB DUP2 GT PUSH2 0x739 JUMPI DUP3 PUSH2 0x45 SWAP2 DUP4 ADD PUSH2 0x762 JUMP JUMPDEST PUSH1 0x20 DUP3 ADD MLOAD SWAP1 SWAP3 PUSH1 0x1 PUSH1 0x1 PUSH1 0x40 SHL SUB DUP3 GT PUSH2 0x739 JUMPI PUSH2 0x65 SWAP2 DUP4 ADD PUSH2 0x762 JUMP JUMPDEST PUSH1 0x40 DUP3 ADD MLOAD PUSH1 0x60 SWAP1 SWAP3 ADD MLOAD SWAP1 SWAP3 PUSH1 0x1 PUSH1 0x1 PUSH1 0xA0 SHL SUB DUP3 AND SWAP1 DUP2 DUP4 SUB PUSH2 0x739 JUMPI DUP1 MLOAD PUSH1 0x1 PUSH1 0x1 PUSH1 0x40 SHL SUB DUP2 GT PUSH2 0x3D4 JUMPI PUSH1 0x3 SLOAD PUSH1 0x1 DUP2 DUP2 SHR SWAP2 AND DUP1 ISZERO PUSH2 0x72F JUMPI JUMPDEST PUSH1 0x20 DUP3 LT EQ PUSH2 0x3B6 JUMPI PUSH1 0x1F DUP2 GT PUSH2 0x6C1 JUMPI JUMPDEST POP DUP1 PUSH1 0x20 PUSH1 0x1F DUP3 GT PUSH1 0x1 EQ PUSH2 0x65D JUMPI PUSH0 SWAP2 PUSH2 0x652 JUMPI JUMPDEST POP DUP2 PUSH1 0x1 SHL SWAP2 PUSH0 NOT SWAP1 PUSH1 0x3 SHL SHR NOT AND OR PUSH1 0x3 SSTORE JUMPDEST DUP5 MLOAD PUSH1 0x1 PUSH1 0x1 PUSH1 0x40 SHL SUB DUP2 GT PUSH2 0x3D4 JUMPI PUSH1 0x4 SLOAD PUSH1 0x1 DUP2 DUP2 SHR SWAP2 AND DUP1 ISZERO PUSH2 0x648 JUMPI JUMPDEST PUSH1 0x20 DUP3 LT EQ PUSH2 0x3B6 JUMPI PUSH1 0x1F DUP2 GT PUSH2 0x5DA JUMPI JUMPDEST POP DUP1 PUSH1 0x20 PUSH1 0x1F DUP3 GT PUSH1 0x1 EQ PUSH2 0x576 JUMPI PUSH0 SWAP2 PUSH2 0x56B JUMPI JUMPDEST POP DUP2 PUSH1 0x1 SHL SWAP2 PUSH0 NOT SWAP1 PUSH1 0x3 SHL SHR NOT AND OR PUSH1 0x4 SSTORE JUMPDEST PUSH1 0x1 PUSH32 0x9B779B17422D0DF92223018B32B4D1FA46E071723D6817E2486D003BECC55F00 SSTORE DUP1 MLOAD ISZERO PUSH2 0x53E JUMPI DUP5 MLOAD ISZERO PUSH2 0x50F JUMPI PUSH2 0x12C DUP5 GT PUSH2 0x4D9 JUMPI DUP1 MLOAD SWAP1 PUSH1 0x1 PUSH1 0x1 PUSH1 0x40 SHL SUB DUP3 GT PUSH2 0x3D4 JUMPI PUSH1 0x8 SLOAD SWAP1 PUSH1 0x1 DUP3 DUP2 SHR SWAP3 AND DUP1 ISZERO PUSH2 0x4CF JUMPI JUMPDEST PUSH1 0x20 DUP4 LT EQ PUSH2 0x3B6 JUMPI DUP2 PUSH1 0x1F DUP5 SWAP4 GT PUSH2 0x459 JUMPI JUMPDEST POP PUSH1 0x20 SWAP1 PUSH1 0x1F DUP4 GT PUSH1 0x1 EQ PUSH2 0x3F3 JUMPI PUSH0 SWAP3 PUSH2 0x3E8 JUMPI JUMPDEST POP POP DUP2 PUSH1 0x1 SHL SWAP2 PUSH0 NOT SWAP1 PUSH1 0x3 SHL SHR NOT AND OR PUSH1 0x8 SSTORE JUMPDEST DUP4 MLOAD PUSH1 0x1 PUSH1 0x1 PUSH1 0x40 SHL SUB DUP2 GT PUSH2 0x3D4 JUMPI PUSH1 0x9 SLOAD PUSH1 0x1 DUP2 DUP2 SHR SWAP2 AND DUP1 ISZERO PUSH2 0x3CA JUMPI JUMPDEST PUSH1 0x20 DUP3 LT EQ PUSH2 0x3B6 JUMPI PUSH1 0x1F DUP2 GT PUSH2 0x348 JUMPI JUMPDEST POP PUSH1 0x20 SWAP5 PUSH1 0x1F DUP3 GT PUSH1 0x1 EQ PUSH2 0x2E5 JUMPI SWAP5 DUP2 SWAP3 SWAP4 SWAP5 SWAP6 PUSH0 SWAP3 PUSH2 0x2DA JUMPI JUMPDEST POP POP DUP2 PUSH1 0x1 SHL SWAP2 PUSH0 NOT SWAP1 PUSH1 0x3 SHL SHR NOT AND OR PUSH1 0x9 SSTORE JUMPDEST PUSH2 0x2D5 JUMPI POP CALLER JUMPDEST PUSH1 0x80 DUP2 SWAP1 MSTORE PUSH1 0x5 DUP1 SLOAD PUSH1 0x1 PUSH1 0x1 PUSH1 0xA0 SHL SUB NOT AND PUSH1 0x1 PUSH1 0x1 PUSH1 0xA0 SHL SUB SWAP1 SWAP3 AND SWAP2 SWAP1 SWAP2 OR SWAP1 SSTORE PUSH1 0xA0 MSTORE PUSH2 0x298 PUSH12 0x33B2E3C9FD0803CE8000000 PUSH20 0x1111111111111111111111111111111111111111 PUSH0 PUSH2 0x7B3 JUMP JUMPDEST PUSH1 0x40 MLOAD PUSH2 0x1620 SWAP1 DUP2 PUSH2 0x8B8 DUP3 CODECOPY PUSH1 0x80 MLOAD DUP2 DUP2 DUP2 PUSH2 0x2AB ADD MSTORE PUSH2 0x3C8 ADD MSTORE PUSH1 0xA0 MLOAD DUP2 DUP2 DUP2 PUSH2 0x3F7 ADD MSTORE DUP2 DUP2 PUSH2 0x7AA ADD MSTORE DUP2 DUP2 PUSH2 0xA6B ADD MSTORE PUSH2 0x1239 ADD MSTORE RETURN JUMPDEST PUSH2 0x246 JUMP JUMPDEST ADD MLOAD SWAP1 POP PUSH0 DUP1 PUSH2 0x22A JUMP JUMPDEST PUSH1 0x1F NOT DUP3 AND SWAP6 PUSH1 0x9 PUSH0 MSTORE DUP1 PUSH0 KECCAK256 SWAP2 PUSH0 JUMPDEST DUP9 DUP2 LT PUSH2 0x330 JUMPI POP DUP4 PUSH1 0x1 SWAP6 SWAP7 SWAP8 SWAP9 LT PUSH2 0x318 JUMPI JUMPDEST POP POP POP DUP2 SHL ADD PUSH1 0x9 SSTORE PUSH2 0x23F JUMP JUMPDEST ADD MLOAD PUSH0 NOT PUSH1 0xF8 DUP5 PUSH1 0x3 SHL AND SHR NOT AND SWAP1 SSTORE PUSH0 DUP1 DUP1 PUSH2 0x30A JUMP JUMPDEST SWAP2 SWAP3 PUSH1 0x20 PUSH1 0x1 DUP2 SWAP3 DUP7 DUP6 ADD MLOAD DUP2 SSTORE ADD SWAP5 ADD SWAP3 ADD PUSH2 0x2F5 JUMP JUMPDEST DUP2 DUP2 GT ISZERO PUSH2 0x20E JUMPI PUSH1 0x9 PUSH0 MSTORE PUSH1 0x1F DUP3 ADD PUSH1 0x5 SHR PUSH32 0x6E1540171B6C0C960B71A7020D9F60077F6AF931A8BBF590DA0223DACF75C7AF PUSH1 0x20 DUP5 LT PUSH2 0x3AE JUMPI JUMPDEST DUP2 PUSH1 0x1F SWAP2 ADD SWAP3 ADD PUSH1 0x5 SHR SUB SWAP1 PUSH0 JUMPDEST DUP3 DUP2 LT PUSH2 0x3A1 JUMPI POP POP PUSH2 0x20E JUMP JUMPDEST PUSH0 DUP3 DUP3 ADD SSTORE PUSH1 0x1 ADD PUSH2 0x393 JUMP JUMPDEST PUSH0 SWAP2 POP PUSH2 0x385 JUMP JUMPDEST PUSH4 0x4E487B71 PUSH1 0xE0 SHL PUSH0 MSTORE PUSH1 0x22 PUSH1 0x4 MSTORE PUSH1 0x24 PUSH0 REVERT JUMPDEST SWAP1 PUSH1 0x7F AND SWAP1 PUSH2 0x1FC JUMP JUMPDEST PUSH4 0x4E487B71 PUSH1 0xE0 SHL PUSH0 MSTORE PUSH1 0x41 PUSH1 0x4 MSTORE PUSH1 0x24 PUSH0 REVERT JUMPDEST ADD MLOAD SWAP1 POP PUSH0 DUP1 PUSH2 0x1C6 JUMP JUMPDEST PUSH1 0x8 PUSH0 SWAP1 DUP2 MSTORE DUP3 DUP2 KECCAK256 SWAP4 POP PUSH1 0x1F NOT DUP6 AND SWAP1 JUMPDEST DUP2 DUP2 LT PUSH2 0x441 JUMPI POP SWAP1 DUP5 PUSH1 0x1 SWAP6 SWAP5 SWAP4 SWAP3 LT PUSH2 0x429 JUMPI JUMPDEST POP POP POP DUP2 SHL ADD PUSH1 0x8 SSTORE PUSH2 0x1DB JUMP JUMPDEST ADD MLOAD PUSH0 NOT PUSH1 0xF8 DUP5 PUSH1 0x3 SHL AND SHR NOT AND SWAP1 SSTORE PUSH0 DUP1 DUP1 PUSH2 0x41B JUMP JUMPDEST SWAP3 SWAP4 PUSH1 0x20 PUSH1 0x1 DUP2 SWAP3 DUP8 DUP7 ADD MLOAD DUP2 SSTORE ADD SWAP6 ADD SWAP4 ADD PUSH2 0x405 JUMP JUMPDEST DUP3 DUP2 GT ISZERO PUSH2 0x1B0 JUMPI PUSH1 0x8 PUSH0 MSTORE SWAP1 SWAP2 POP PUSH1 0x1F DUP4 ADD PUSH1 0x5 SHR PUSH32 0xF3F7A9FE364FAAB93B216DA50A3214154F22A0A2B415B23A84C8169E8B636EE3 PUSH1 0x20 DUP6 LT PUSH2 0x4C7 JUMPI JUMPDEST DUP5 SWAP4 SWAP3 PUSH1 0x1F ADD PUSH1 0x5 SHR DUP3 SWAP1 SUB SWAP2 ADD PUSH0 JUMPDEST DUP3 DUP2 LT PUSH2 0x4B7 JUMPI POP POP PUSH2 0x1B0 JUMP JUMPDEST PUSH0 DUP2 DUP4 ADD SSTORE DUP6 SWAP5 POP PUSH1 0x1 ADD PUSH2 0x4A9 JUMP JUMPDEST PUSH0 SWAP2 POP PUSH2 0x499 JUMP JUMPDEST SWAP2 PUSH1 0x7F AND SWAP2 PUSH2 0x19C JUMP JUMPDEST PUSH1 0x40 MLOAD PUSH3 0x461BCD PUSH1 0xE5 SHL DUP2 MSTORE PUSH1 0x20 PUSH1 0x4 DUP3 ADD MSTORE PUSH1 0xE PUSH1 0x24 DUP3 ADD MSTORE PUSH14 0x21747265617375727942503E3325 PUSH1 0x90 SHL PUSH1 0x44 DUP3 ADD MSTORE PUSH1 0x64 SWAP1 REVERT JUMPDEST PUSH1 0x40 MLOAD PUSH3 0x461BCD PUSH1 0xE5 SHL DUP2 MSTORE PUSH1 0x20 PUSH1 0x4 DUP3 ADD MSTORE PUSH1 0x7 PUSH1 0x24 DUP3 ADD MSTORE PUSH7 0x85CDE5B589BDB PUSH1 0xCA SHL PUSH1 0x44 DUP3 ADD MSTORE PUSH1 0x64 SWAP1 REVERT JUMPDEST PUSH1 0x40 MLOAD PUSH3 0x461BCD PUSH1 0xE5 SHL DUP2 MSTORE PUSH1 0x20 PUSH1 0x4 DUP3 ADD MSTORE PUSH1 0x5 PUSH1 0x24 DUP3 ADD MSTORE PUSH5 0x216E616D65 PUSH1 0xD8 SHL PUSH1 0x44 DUP3 ADD MSTORE PUSH1 0x64 SWAP1 REVERT JUMPDEST SWAP1 POP DUP7 ADD MLOAD PUSH0 PUSH2 0x12A JUMP JUMPDEST PUSH1 0x4 PUSH0 SWAP1 DUP2 MSTORE DUP2 DUP2 KECCAK256 SWAP3 POP PUSH1 0x1F NOT DUP5 AND SWAP1 JUMPDEST DUP2 DUP2 LT PUSH2 0x5C2 JUMPI POP SWAP1 DUP4 PUSH1 0x1 SWAP5 SWAP4 SWAP3 LT PUSH2 0x5AA JUMPI JUMPDEST POP POP DUP2 SHL ADD PUSH1 0x4 SSTORE PUSH2 0x13E JUMP JUMPDEST DUP9 ADD MLOAD PUSH0 NOT PUSH1 0xF8 DUP5 PUSH1 0x3 SHL AND SHR NOT AND SWAP1 SSTORE PUSH0 DUP1 PUSH2 0x59D JUMP JUMPDEST SWAP2 SWAP3 PUSH1 0x20 PUSH1 0x1 DUP2 SWAP3 DUP7 DUP14 ADD MLOAD DUP2 SSTORE ADD SWAP5 ADD SWAP3 ADD PUSH2 0x588 JUMP JUMPDEST DUP2 DUP2 GT ISZERO PUSH2 0x114 JUMPI PUSH1 0x4 PUSH0 MSTORE PUSH1 0x1F DUP3 ADD PUSH1 0x5 SHR PUSH32 0x8A35ACFBC15FF81A39AE7D344FD709F28E8600B4AA8C65C6B64BFE7FE36BD19B PUSH1 0x20 DUP5 LT PUSH2 0x640 JUMPI JUMPDEST DUP2 PUSH1 0x1F SWAP2 ADD SWAP3 ADD PUSH1 0x5 SHR SUB SWAP1 PUSH0 JUMPDEST DUP3 DUP2 LT PUSH2 0x633 JUMPI POP POP PUSH2 0x114 JUMP JUMPDEST PUSH0 DUP3 DUP3 ADD SSTORE PUSH1 0x1 ADD PUSH2 0x625 JUMP JUMPDEST PUSH0 SWAP2 POP PUSH2 0x617 JUMP JUMPDEST SWAP1 PUSH1 0x7F AND SWAP1 PUSH2 0x102 JUMP JUMPDEST SWAP1 POP DUP3 ADD MLOAD PUSH0 PUSH2 0xCD JUMP JUMPDEST PUSH1 0x3 PUSH0 SWAP1 DUP2 MSTORE DUP2 DUP2 KECCAK256 SWAP3 POP PUSH1 0x1F NOT DUP5 AND SWAP1 JUMPDEST DUP2 DUP2 LT PUSH2 0x6A9 JUMPI POP SWAP1 DUP4 PUSH1 0x1 SWAP5 SWAP4 SWAP3 LT PUSH2 0x691 JUMPI JUMPDEST POP POP DUP2 SHL ADD PUSH1 0x3 SSTORE PUSH2 0xE1 JUMP JUMPDEST DUP5 ADD MLOAD PUSH0 NOT PUSH1 0xF8 DUP5 PUSH1 0x3 SHL AND SHR NOT AND SWAP1 SSTORE PUSH0 DUP1 PUSH2 0x684 JUMP JUMPDEST SWAP2 SWAP3 PUSH1 0x20 PUSH1 0x1 DUP2 SWAP3 DUP7 DUP10 ADD MLOAD DUP2 SSTORE ADD SWAP5 ADD SWAP3 ADD PUSH2 0x66F JUMP JUMPDEST DUP2 DUP2 GT ISZERO PUSH2 0xB7 JUMPI PUSH1 0x3 PUSH0 MSTORE PUSH1 0x1F DUP3 ADD PUSH1 0x5 SHR PUSH32 0xC2575A0E9E593C00F959F8C92F12DB2869C3395A3B0502D05E2516446F71F85B PUSH1 0x20 DUP5 LT PUSH2 0x727 JUMPI JUMPDEST DUP2 PUSH1 0x1F SWAP2 ADD SWAP3 ADD PUSH1 0x5 SHR SUB SWAP1 PUSH0 JUMPDEST DUP3 DUP2 LT PUSH2 0x71A JUMPI POP POP PUSH2 0xB7 JUMP JUMPDEST PUSH0 DUP3 DUP3 ADD SSTORE PUSH1 0x1 ADD PUSH2 0x70C JUMP JUMPDEST PUSH0 SWAP2 POP PUSH2 0x6FE JUMP JUMPDEST SWAP1 PUSH1 0x7F AND SWAP1 PUSH2 0xA5 JUMP JUMPDEST PUSH0 DUP1 REVERT JUMPDEST PUSH1 0x40 MLOAD SWAP2 SWAP1 PUSH1 0x1F ADD PUSH1 0x1F NOT AND DUP3 ADD PUSH1 0x1 PUSH1 0x1 PUSH1 0x40 SHL SUB DUP2 GT DUP4 DUP3 LT OR PUSH2 0x3D4 JUMPI PUSH1 0x40 MSTORE JUMP JUMPDEST DUP2 PUSH1 0x1F DUP3 ADD SLT ISZERO PUSH2 0x739 JUMPI DUP1 MLOAD SWAP1 PUSH1 0x1 PUSH1 0x1 PUSH1 0x40 SHL SUB DUP3 GT PUSH2 0x3D4 JUMPI PUSH2 0x791 PUSH1 0x1F DUP4 ADD PUSH1 0x1F NOT AND PUSH1 0x20 ADD PUSH2 0x73D JUMP JUMPDEST SWAP3 DUP3 DUP5 MSTORE PUSH1 0x20 DUP4 DUP4 ADD ADD GT PUSH2 0x739 JUMPI DUP2 PUSH0 SWAP3 PUSH1 0x20 DUP1 SWAP4 ADD DUP4 DUP7 ADD MCOPY DUP4 ADD ADD MSTORE SWAP1 JUMP JUMPDEST PUSH1 0x1 PUSH1 0x1 PUSH1 0xA0 SHL SUB AND DUP1 ISZERO SWAP3 SWAP2 DUP4 ISZERO PUSH2 0x875 JUMPI PUSH1 0x2 SLOAD DUP4 DUP2 ADD DUP1 SWAP2 GT PUSH2 0x861 JUMPI PUSH1 0x2 SSTORE JUMPDEST PUSH1 0x1 PUSH1 0x1 PUSH1 0xA0 SHL SUB AND DUP1 ISZERO SWAP3 SWAP1 SWAP2 SWAP1 PUSH32 0xDDF252AD1BE2C89B69C2B068FC378DAA952BA7F163C4A11628F55A4DF523B3EF SWAP1 PUSH1 0x20 SWAP1 DUP6 ISZERO PUSH2 0x84C JUMPI DUP1 PUSH1 0x2 SLOAD SUB PUSH1 0x2 SSTORE JUMPDEST PUSH1 0x40 MLOAD SWAP1 DUP2 MSTORE LOG3 DUP2 ISZERO PUSH2 0x844 JUMPI JUMPDEST POP DUP1 ISZERO PUSH2 0x838 JUMPI JUMPDEST PUSH2 0x836 JUMPI JUMP JUMPDEST JUMP JUMPDEST POP PUSH1 0xFF PUSH1 0x7 SLOAD AND PUSH2 0x830 JUMP JUMPDEST SWAP1 POP PUSH0 PUSH2 0x828 JUMP JUMPDEST DUP5 PUSH0 MSTORE PUSH0 DUP3 MSTORE PUSH1 0x40 PUSH0 KECCAK256 DUP2 DUP2 SLOAD ADD SWAP1 SSTORE PUSH2 0x81A JUMP JUMPDEST PUSH4 0x4E487B71 PUSH1 0xE0 SHL PUSH0 MSTORE PUSH1 0x11 PUSH1 0x4 MSTORE PUSH1 0x24 PUSH0 REVERT JUMPDEST DUP2 PUSH0 MSTORE PUSH0 PUSH1 0x20 MSTORE PUSH1 0x40 PUSH0 KECCAK256 SLOAD DUP4 DUP2 LT PUSH2 0x89C JUMPI DUP4 SWAP1 DUP4 PUSH0 MSTORE PUSH0 PUSH1 0x20 MSTORE SUB PUSH1 0x40 PUSH0 KECCAK256 SSTORE PUSH2 0x7D7 JUMP JUMPDEST SWAP2 SWAP1 POP PUSH4 0x391434E3 PUSH1 0xE2 SHL PUSH0 MSTORE PUSH1 0x4 MSTORE PUSH1 0x24 MSTORE PUSH1 0x44 MSTORE PUSH1 0x64 PUSH0 REVERT INVALID PUSH1 0x80 PUSH1 0x40 MSTORE PUSH1 0x4 CALLDATASIZE LT ISZERO PUSH2 0x1A JUMPI JUMPDEST CALLDATASIZE ISZERO PUSH2 0x18 JUMPI PUSH0 DUP1 REVERT JUMPDEST STOP JUMPDEST PUSH0 PUSH0 CALLDATALOAD PUSH1 0xE0 SHR DUP1 PUSH4 0x57466EA EQ PUSH2 0xE98 JUMPI DUP1 PUSH4 0x6FDDE03 EQ PUSH2 0xDA4 JUMPI DUP1 PUSH4 0x95EA7B3 EQ PUSH2 0xCFC JUMPI DUP1 PUSH4 0x11F1FC99 EQ PUSH2 0xC5E JUMPI DUP1 PUSH4 0x17F185EB EQ PUSH2 0xC42 JUMPI DUP1 PUSH4 0x18160DDD EQ PUSH2 0xC25 JUMPI DUP1 PUSH4 0x1EFBE895 EQ PUSH2 0xC03 JUMPI DUP1 PUSH4 0x1F181D57 EQ PUSH2 0x96E JUMPI DUP1 PUSH4 0x23B872DD EQ PUSH2 0x88C JUMPI DUP1 PUSH4 0x25653ECA EQ PUSH2 0x269 JUMPI DUP1 PUSH4 0x30D9A62A EQ PUSH2 0x863 JUMPI DUP1 PUSH4 0x313CE567 EQ PUSH2 0x847 JUMPI DUP1 PUSH4 0x314C7F69 EQ PUSH2 0x828 JUMPI DUP1 PUSH4 0x327BA06C EQ PUSH2 0x269 JUMPI DUP1 PUSH4 0x3DAE21AA EQ PUSH2 0x80C JUMPI DUP1 PUSH4 0x45B18F25 EQ PUSH2 0x7E8 JUMPI DUP1 PUSH4 0x4B94F50E EQ PUSH2 0x7CD JUMPI DUP1 PUSH4 0x704C6D09 EQ PUSH2 0x792 JUMPI DUP1 PUSH4 0x70A08231 EQ PUSH2 0x75B JUMPI DUP1 PUSH4 0x829F743F EQ PUSH2 0x269 JUMPI DUP1 PUSH4 0x8A9118C0 EQ PUSH2 0x740 JUMPI DUP1 PUSH4 0x95D89B41 EQ PUSH2 0x643 JUMPI DUP1 PUSH4 0x9FF2A268 EQ PUSH2 0x61C JUMPI DUP1 PUSH4 0xA10499B1 EQ PUSH2 0x269 JUMPI DUP1 PUSH4 0xA7E05B9C EQ PUSH2 0x59C JUMPI DUP1 PUSH4 0xA9059CBB EQ PUSH2 0x56A JUMPI DUP1 PUSH4 0xABB1DC44 EQ PUSH2 0x2DA JUMPI DUP1 PUSH4 0xC1B8411A EQ PUSH2 0x295 JUMPI DUP1 PUSH4 0xCF266BC3 EQ PUSH2 0x269 JUMPI DUP1 PUSH4 0xD52B9164 EQ PUSH2 0x26E JUMPI DUP1 PUSH4 0xDC6538E2 EQ PUSH2 0x269 JUMPI DUP1 PUSH4 0xDD62ED3E EQ PUSH2 0x216 JUMPI DUP1 PUSH4 0xEB0EE934 EQ PUSH2 0x1FA JUMPI DUP1 PUSH4 0xF1D9F88B EQ PUSH2 0x1C6 JUMPI PUSH4 0xFF71B4E5 EQ PUSH2 0x1A6 JUMPI POP PUSH2 0xE JUMP JUMPDEST CALLVALUE PUSH2 0x1C3 JUMPI DUP1 PUSH1 0x3 NOT CALLDATASIZE ADD SLT PUSH2 0x1C3 JUMPI PUSH1 0x20 PUSH1 0x6 SLOAD PUSH1 0x40 MLOAD SWAP1 DUP2 MSTORE RETURN JUMPDEST DUP1 REVERT JUMPDEST POP CALLVALUE PUSH2 0x1C3 JUMPI DUP1 PUSH1 0x3 NOT CALLDATASIZE ADD SLT PUSH2 0x1C3 JUMPI PUSH0 MLOAD PUSH1 0x20 PUSH2 0x15AB PUSH0 CODECOPY PUSH0 MLOAD SWAP1 PUSH0 MSTORE PUSH0 MSTORE PUSH0 PUSH1 0x20 MSTORE PUSH1 0x20 PUSH1 0x40 PUSH0 KECCAK256 SLOAD PUSH1 0x40 MLOAD SWAP1 DUP2 MSTORE RETURN JUMPDEST POP CALLVALUE PUSH2 0x1C3 JUMPI DUP1 PUSH1 0x3 NOT CALLDATASIZE ADD SLT PUSH2 0x1C3 JUMPI PUSH1 0x20 SWAP1 PUSH1 0x40 MLOAD SWAP1 DUP2 MSTORE RETURN JUMPDEST POP CALLVALUE PUSH2 0x1C3 JUMPI PUSH1 0x40 CALLDATASIZE PUSH1 0x3 NOT ADD SLT PUSH2 0x1C3 JUMPI PUSH1 0x40 PUSH2 0x232 PUSH2 0x1079 JUMP JUMPDEST SWAP2 PUSH2 0x23B PUSH2 0x108F JUMP JUMPDEST SWAP3 PUSH1 0x1 DUP1 PUSH1 0xA0 SHL SUB AND DUP2 MSTORE PUSH1 0x1 PUSH1 0x20 MSTORE KECCAK256 SWAP1 PUSH1 0x1 DUP1 PUSH1 0xA0 SHL SUB AND PUSH0 MSTORE PUSH1 0x20 MSTORE PUSH1 0x20 PUSH1 0x40 PUSH0 KECCAK256 SLOAD PUSH1 0x40 MLOAD SWAP1 DUP2 MSTORE RETURN JUMPDEST PUSH2 0x10A5 JUMP JUMPDEST POP CALLVALUE PUSH2 0x1C3 JUMPI PUSH1 0x20 CALLDATASIZE PUSH1 0x3 NOT ADD SLT PUSH2 0x1C3 JUMPI PUSH1 0x20 PUSH2 0x28D PUSH1 0x4 CALLDATALOAD PUSH2 0x131E JUMP JUMPDEST PUSH1 0x40 MLOAD SWAP1 DUP2 MSTORE RETURN JUMPDEST POP CALLVALUE PUSH2 0x1C3 JUMPI DUP1 PUSH1 0x3 NOT CALLDATASIZE ADD SLT PUSH2 0x1C3 JUMPI PUSH1 0x40 MLOAD PUSH32 0x0 PUSH1 0x1 PUSH1 0x1 PUSH1 0xA0 SHL SUB AND DUP2 MSTORE PUSH1 0x20 SWAP1 RETURN JUMPDEST POP CALLVALUE PUSH2 0x1C3 JUMPI DUP1 PUSH1 0x3 NOT CALLDATASIZE ADD SLT PUSH2 0x1C3 JUMPI PUSH2 0x2F3 PUSH2 0x1281 JUMP JUMPDEST PUSH2 0x2FB PUSH2 0x12F6 JUMP JUMPDEST SWAP1 PUSH0 MLOAD PUSH1 0x20 PUSH2 0x15AB PUSH0 CODECOPY PUSH0 MLOAD SWAP1 PUSH0 MSTORE PUSH0 MSTORE PUSH0 PUSH1 0x20 MSTORE PUSH1 0x40 PUSH0 KECCAK256 SLOAD PUSH1 0x40 MLOAD SWAP3 DUP5 PUSH1 0x8 SLOAD SWAP1 DUP2 PUSH1 0x1 SHR SWAP2 PUSH1 0x1 DUP2 AND DUP1 ISZERO PUSH2 0x560 JUMPI JUMPDEST PUSH1 0x20 DUP5 LT DUP2 EQ PUSH2 0x54C JUMPI DUP4 DUP9 MSTORE DUP8 SWAP3 SWAP2 DUP2 ISZERO PUSH2 0x52D JUMPI POP PUSH1 0x1 EQ PUSH2 0x4CF JUMPI JUMPDEST PUSH2 0x359 SWAP3 POP SUB DUP6 PUSH2 0x1189 JUMP JUMPDEST PUSH1 0x40 MLOAD SWAP5 DUP1 PUSH1 0x9 SLOAD SWAP1 DUP2 PUSH1 0x1 SHR SWAP2 PUSH1 0x1 DUP2 AND DUP1 ISZERO PUSH2 0x4C5 JUMPI JUMPDEST PUSH1 0x20 DUP5 LT DUP2 EQ PUSH2 0x4B1 JUMPI DUP4 DUP11 MSTORE SWAP1 DUP2 ISZERO PUSH2 0x48A JUMPI POP PUSH1 0x1 EQ PUSH2 0x431 JUMPI JUMPDEST POP POP DUP6 PUSH2 0x3A4 PUSH2 0x3B8 SWAP8 PUSH2 0x3C6 SWAP4 SUB DUP3 PUSH2 0x1189 JUMP JUMPDEST PUSH1 0x40 MLOAD SWAP7 DUP8 SWAP7 PUSH1 0xE0 DUP9 MSTORE PUSH1 0xE0 DUP9 ADD SWAP1 PUSH2 0x1055 JUMP JUMPDEST SWAP1 DUP7 DUP3 SUB PUSH1 0x20 DUP9 ADD MSTORE PUSH2 0x1055 JUMP JUMPDEST PUSH32 0x0 PUSH1 0x1 PUSH1 0x1 PUSH1 0xA0 SHL SUB AND PUSH1 0x40 DUP7 ADD MSTORE PUSH32 0x0 PUSH1 0x60 DUP7 ADD MSTORE PUSH1 0x80 DUP6 ADD SWAP4 SWAP1 SWAP4 MSTORE PUSH1 0xA0 DUP5 ADD MSTORE PUSH1 0xC0 DUP4 ADD MSTORE SUB SWAP1 RETURN JUMPDEST PUSH1 0x9 DUP2 MSTORE SWAP2 POP PUSH32 0x6E1540171B6C0C960B71A7020D9F60077F6AF931A8BBF590DA0223DACF75C7AF JUMPDEST DUP2 DUP4 LT PUSH2 0x470 JUMPI POP POP DUP6 ADD PUSH1 0x20 ADD DUP6 PUSH2 0x3A4 PUSH2 0x38F JUMP JUMPDEST PUSH1 0x1 DUP2 PUSH1 0x20 SWAP3 SWAP5 SWAP4 SWAP5 SLOAD DUP4 DUP6 DUP13 ADD ADD MSTORE ADD SWAP2 ADD SWAP2 SWAP1 PUSH2 0x459 JUMP JUMPDEST PUSH1 0xFF NOT AND PUSH1 0x20 DUP1 DUP12 ADD SWAP2 SWAP1 SWAP2 MSTORE SWAP3 ISZERO ISZERO PUSH1 0x5 SHL DUP10 ADD SWAP1 SWAP3 ADD SWAP3 POP DUP8 SWAP2 POP PUSH2 0x3A4 SWAP1 POP PUSH2 0x38F JUMP JUMPDEST PUSH4 0x4E487B71 PUSH1 0xE0 SHL DUP4 MSTORE PUSH1 0x22 PUSH1 0x4 MSTORE PUSH1 0x24 DUP4 REVERT JUMPDEST SWAP3 PUSH1 0x7F AND SWAP3 PUSH2 0x372 JUMP JUMPDEST POP PUSH1 0x8 DUP8 MSTORE SWAP1 DUP7 SWAP1 PUSH32 0xF3F7A9FE364FAAB93B216DA50A3214154F22A0A2B415B23A84C8169E8B636EE3 JUMPDEST DUP2 DUP4 LT PUSH2 0x511 JUMPI POP POP SWAP1 PUSH1 0x20 PUSH2 0x359 SWAP3 DUP3 ADD ADD PUSH2 0x34D JUMP JUMPDEST PUSH1 0x20 SWAP2 SWAP4 POP DUP1 PUSH1 0x1 SWAP2 SLOAD DUP4 DUP6 DUP12 ADD ADD MSTORE ADD SWAP2 ADD SWAP1 SWAP2 DUP7 SWAP3 PUSH2 0x4F9 JUMP JUMPDEST PUSH1 0x20 SWAP3 POP PUSH2 0x359 SWAP5 SWAP2 POP PUSH1 0xFF NOT AND DUP3 DUP5 ADD MSTORE ISZERO ISZERO PUSH1 0x5 SHL DUP3 ADD ADD PUSH2 0x34D JUMP JUMPDEST PUSH4 0x4E487B71 PUSH1 0xE0 SHL DUP10 MSTORE PUSH1 0x22 PUSH1 0x4 MSTORE PUSH1 0x24 DUP10 REVERT JUMPDEST SWAP3 PUSH1 0x7F AND SWAP3 PUSH2 0x32E JUMP JUMPDEST POP CALLVALUE PUSH2 0x1C3 JUMPI PUSH1 0x40 CALLDATASIZE PUSH1 0x3 NOT ADD SLT PUSH2 0x1C3 JUMPI PUSH2 0x591 PUSH2 0x587 PUSH2 0x1079 JUMP JUMPDEST PUSH1 0x24 CALLDATALOAD SWAP1 CALLER PUSH2 0x1467 JUMP JUMPDEST PUSH1 0x20 PUSH1 0x40 MLOAD PUSH1 0x1 DUP2 MSTORE RETURN JUMPDEST POP CALLVALUE PUSH2 0x1C3 JUMPI PUSH1 0x20 CALLDATASIZE PUSH1 0x3 NOT ADD SLT PUSH2 0x1C3 JUMPI PUSH2 0x5B6 PUSH2 0x1079 JUMP JUMPDEST PUSH1 0x5 SLOAD SWAP1 PUSH2 0x5CE CALLER PUSH1 0x1 PUSH1 0x1 PUSH1 0xA0 SHL SUB DUP5 AND EQ PUSH2 0x11C0 JUMP JUMPDEST PUSH1 0x1 PUSH1 0x1 PUSH1 0xA0 SHL SUB AND SWAP1 DUP2 ISZERO PUSH2 0x5EF JUMPI PUSH1 0x1 PUSH1 0x1 PUSH1 0xA0 SHL SUB NOT AND OR PUSH1 0x5 SSTORE DUP1 RETURN JUMPDEST PUSH1 0x40 MLOAD PUSH3 0x461BCD PUSH1 0xE5 SHL DUP2 MSTORE PUSH1 0x20 PUSH1 0x4 DUP3 ADD MSTORE PUSH1 0x5 PUSH1 0x24 DUP3 ADD MSTORE PUSH5 0x217A65726F PUSH1 0xD8 SHL PUSH1 0x44 DUP3 ADD MSTORE PUSH1 0x64 SWAP1 REVERT JUMPDEST POP CALLVALUE PUSH2 0x1C3 JUMPI DUP1 PUSH1 0x3 NOT CALLDATASIZE ADD SLT PUSH2 0x1C3 JUMPI PUSH1 0x40 MLOAD PUSH8 0x6765C793FA10079D PUSH1 0x1B SHL DUP2 MSTORE PUSH1 0x20 SWAP1 RETURN JUMPDEST POP CALLVALUE PUSH2 0x1C3 JUMPI DUP1 PUSH1 0x3 NOT CALLDATASIZE ADD SLT PUSH2 0x1C3 JUMPI PUSH1 0x40 MLOAD SWAP1 DUP1 PUSH1 0x4 SLOAD SWAP1 DUP2 PUSH1 0x1 SHR SWAP2 PUSH1 0x1 DUP2 AND DUP1 ISZERO PUSH2 0x736 JUMPI JUMPDEST PUSH1 0x20 DUP5 LT DUP2 EQ PUSH2 0x4B1 JUMPI DUP4 DUP7 MSTORE SWAP1 DUP2 ISZERO PUSH2 0x70F JUMPI POP PUSH1 0x1 EQ PUSH2 0x6B2 JUMPI JUMPDEST PUSH2 0x6AE DUP5 PUSH2 0x69A DUP2 DUP7 SUB DUP3 PUSH2 0x1189 JUMP JUMPDEST PUSH1 0x40 MLOAD SWAP2 DUP3 SWAP2 PUSH1 0x20 DUP4 MSTORE PUSH1 0x20 DUP4 ADD SWAP1 PUSH2 0x1055 JUMP JUMPDEST SUB SWAP1 RETURN JUMPDEST PUSH1 0x4 DUP2 MSTORE PUSH32 0x8A35ACFBC15FF81A39AE7D344FD709F28E8600B4AA8C65C6B64BFE7FE36BD19B SWAP4 SWAP3 POP SWAP1 JUMPDEST DUP1 DUP3 LT PUSH2 0x6F5 JUMPI POP SWAP1 SWAP2 POP DUP2 ADD PUSH1 0x20 ADD PUSH2 0x69A DUP3 PUSH2 0x68A JUMP JUMPDEST SWAP2 SWAP3 PUSH1 0x1 DUP2 PUSH1 0x20 SWAP3 SLOAD DUP4 DUP6 DUP9 ADD ADD MSTORE ADD SWAP2 ADD SWAP1 SWAP3 SWAP2 PUSH2 0x6DC JUMP JUMPDEST PUSH1 0xFF NOT AND PUSH1 0x20 DUP1 DUP8 ADD SWAP2 SWAP1 SWAP2 MSTORE SWAP3 ISZERO ISZERO PUSH1 0x5 SHL DUP6 ADD SWAP1 SWAP3 ADD SWAP3 POP PUSH2 0x69A SWAP2 POP DUP4 SWAP1 POP PUSH2 0x68A JUMP JUMPDEST SWAP3 PUSH1 0x7F AND SWAP3 PUSH2 0x66D JUMP JUMPDEST POP CALLVALUE PUSH2 0x1C3 JUMPI DUP1 PUSH1 0x3 NOT CALLDATASIZE ADD SLT PUSH2 0x1C3 JUMPI PUSH1 0x20 PUSH2 0x28D PUSH2 0x12F6 JUMP JUMPDEST POP CALLVALUE PUSH2 0x1C3 JUMPI PUSH1 0x20 CALLDATASIZE PUSH1 0x3 NOT ADD SLT PUSH2 0x1C3 JUMPI PUSH1 0x40 PUSH1 0x20 SWAP2 PUSH2 0x77A PUSH2 0x1079 JUMP JUMPDEST PUSH1 0x1 PUSH1 0x1 PUSH1 0xA0 SHL SUB AND DUP2 MSTORE DUP1 DUP4 MSTORE KECCAK256 SLOAD PUSH1 0x40 MLOAD SWAP1 DUP2 MSTORE RETURN JUMPDEST POP CALLVALUE PUSH2 0x1C3 JUMPI DUP1 PUSH1 0x3 NOT CALLDATASIZE ADD SLT PUSH2 0x1C3 JUMPI PUSH1 0x20 PUSH1 0x40 MLOAD PUSH32 0x0 DUP2 MSTORE RETURN JUMPDEST POP CALLVALUE PUSH2 0x1C3 JUMPI DUP1 PUSH1 0x3 NOT CALLDATASIZE ADD SLT PUSH2 0x1C3 JUMPI PUSH1 0x20 PUSH2 0x28D PUSH2 0x1281 JUMP JUMPDEST POP CALLVALUE PUSH2 0x1C3 JUMPI DUP1 PUSH1 0x3 NOT CALLDATASIZE ADD SLT PUSH2 0x1C3 JUMPI PUSH1 0x20 PUSH1 0x40 MLOAD PUSH9 0x1236EFCBCBB340000 DUP2 MSTORE RETURN JUMPDEST POP CALLVALUE PUSH2 0x1C3 JUMPI DUP1 PUSH1 0x3 NOT CALLDATASIZE ADD SLT PUSH2 0x1C3 JUMPI PUSH1 0x20 PUSH1 0x40 MLOAD PUSH1 0x1 DUP2 MSTORE RETURN JUMPDEST POP CALLVALUE PUSH2 0x1C3 JUMPI PUSH1 0x20 CALLDATASIZE PUSH1 0x3 NOT ADD SLT PUSH2 0x1C3 JUMPI PUSH1 0x20 PUSH2 0x28D PUSH1 0x4 CALLDATALOAD PUSH2 0x11F8 JUMP JUMPDEST POP CALLVALUE PUSH2 0x1C3 JUMPI DUP1 PUSH1 0x3 NOT CALLDATASIZE ADD SLT PUSH2 0x1C3 JUMPI PUSH1 0x20 PUSH1 0x40 MLOAD PUSH1 0x12 DUP2 MSTORE RETURN JUMPDEST POP CALLVALUE PUSH2 0x1C3 JUMPI DUP1 PUSH1 0x3 NOT CALLDATASIZE ADD SLT PUSH2 0x1C3 JUMPI PUSH1 0x5 SLOAD PUSH1 0x40 MLOAD PUSH1 0x1 PUSH1 0x1 PUSH1 0xA0 SHL SUB SWAP1 SWAP2 AND DUP2 MSTORE PUSH1 0x20 SWAP1 RETURN JUMPDEST POP CALLVALUE PUSH2 0x1C3 JUMPI PUSH1 0x60 CALLDATASIZE PUSH1 0x3 NOT ADD SLT PUSH2 0x1C3 JUMPI PUSH2 0x8A6 PUSH2 0x1079 JUMP JUMPDEST PUSH2 0x8AE PUSH2 0x108F JUMP JUMPDEST PUSH1 0x1 PUSH1 0x1 PUSH1 0xA0 SHL SUB DUP3 AND DUP1 DUP5 MSTORE PUSH1 0x1 PUSH1 0x20 SWAP1 DUP2 MSTORE PUSH1 0x40 DUP1 DUP7 KECCAK256 CALLER PUSH0 SWAP1 DUP2 MSTORE SWAP3 MSTORE SWAP1 KECCAK256 SLOAD PUSH1 0x44 CALLDATALOAD SWAP4 SWAP2 PUSH0 NOT DUP3 LT PUSH2 0x8EB JUMPI JUMPDEST POP POP PUSH2 0x591 SWAP4 POP PUSH2 0x1467 JUMP JUMPDEST DUP5 DUP3 LT PUSH2 0x953 JUMPI DUP1 ISZERO PUSH2 0x93F JUMPI CALLER ISZERO PUSH2 0x92B JUMPI DUP6 PUSH1 0x40 SWAP2 PUSH2 0x591 SWAP8 MSTORE PUSH1 0x1 PUSH1 0x20 MSTORE KECCAK256 PUSH1 0x1 DUP1 PUSH1 0xA0 SHL SUB CALLER AND PUSH0 MSTORE PUSH1 0x20 MSTORE DUP4 PUSH1 0x40 PUSH0 KECCAK256 SWAP2 SUB SWAP1 SSTORE PUSH0 DUP1 PUSH2 0x8DF JUMP JUMPDEST PUSH4 0x4A1406B1 PUSH1 0xE1 SHL DUP7 MSTORE PUSH1 0x4 DUP7 SWAP1 MSTORE PUSH1 0x24 DUP7 REVERT JUMPDEST PUSH4 0xE602DF05 PUSH1 0xE0 SHL DUP7 MSTORE PUSH1 0x4 DUP7 SWAP1 MSTORE PUSH1 0x24 DUP7 REVERT JUMPDEST PUSH1 0x64 DUP7 DUP7 DUP5 PUSH4 0x7DC7A0D9 PUSH1 0xE1 SHL DUP4 MSTORE CALLER PUSH1 0x4 MSTORE PUSH1 0x24 MSTORE PUSH1 0x44 MSTORE REVERT JUMPDEST CALLVALUE PUSH2 0xBFF JUMPI PUSH1 0x60 CALLDATASIZE PUSH1 0x3 NOT ADD SLT PUSH2 0xBFF JUMPI PUSH1 0x4 CALLDATALOAD PUSH1 0x24 CALLDATALOAD PUSH1 0x44 CALLDATALOAD PUSH2 0x990 PUSH2 0x1363 JUMP JUMPDEST DUP3 ISZERO PUSH2 0xBD1 JUMPI DUP2 ISZERO PUSH2 0xBA2 JUMPI DUP1 PUSH2 0x9B0 SWAP2 ISZERO SWAP1 DUP2 ISZERO PUSH2 0xB97 JUMPI JUMPDEST POP PUSH2 0x10BF JUMP JUMPDEST PUSH2 0x9BA PUSH0 CALLER PUSH2 0x139B JUMP JUMPDEST SELFBALANCE PUSH9 0x1236EFCBCBB340000 ADD DUP1 PUSH9 0x1236EFCBCBB340000 GT PUSH2 0xB83 JUMPI PUSH2 0x9E6 PUSH2 0xA2E SWAP2 PUSH1 0x6 SLOAD SWAP1 PUSH2 0x1102 JUMP JUMPDEST PUSH0 MLOAD PUSH1 0x20 PUSH2 0x15AB PUSH0 CODECOPY PUSH0 MLOAD SWAP1 PUSH0 MSTORE PUSH0 MSTORE PUSH0 PUSH1 0x20 MSTORE PUSH2 0xA28 PUSH1 0x40 PUSH0 KECCAK256 SLOAD PUSH2 0xA23 PUSH2 0xA19 PUSH2 0xA12 DUP9 DUP5 PUSH2 0x10F5 JUMP JUMPDEST SWAP3 DUP6 PUSH2 0x110F JUMP JUMPDEST DUP3 PUSH1 0x1 SHR SWAP1 PUSH2 0x10F5 JUMP JUMPDEST PUSH2 0x1122 JUMP JUMPDEST SWAP1 PUSH2 0x1102 JUMP JUMPDEST SWAP1 DUP2 ISZERO PUSH2 0xB54 JUMPI PUSH2 0xA47 PUSH1 0x1 PUSH1 0xFF NOT PUSH1 0x7 SLOAD AND OR PUSH1 0x7 SSTORE JUMP JUMPDEST PUSH2 0xA5F DUP4 PUSH0 MLOAD PUSH1 0x20 PUSH2 0x15AB PUSH0 CODECOPY PUSH0 MLOAD SWAP1 PUSH0 MSTORE CALLER PUSH2 0x14A3 JUMP JUMPDEST PUSH1 0x7 DUP1 SLOAD PUSH1 0xFF NOT AND SWAP1 SSTORE PUSH32 0x0 DUP1 ISZERO PUSH2 0xB30 JUMPI PUSH0 DUP1 DUP1 SWAP4 PUSH2 0xAC7 PUSH2 0xABE PUSH2 0x2710 PUSH2 0xAA8 DUP6 SWAP8 DUP11 PUSH2 0x110F JUMP JUMPDEST DIV PUSH2 0xAB5 DUP2 PUSH1 0x6 SLOAD PUSH2 0x10F5 JUMP JUMPDEST PUSH1 0x6 SSTORE DUP9 PUSH2 0x1102 JUMP JUMPDEST SWAP2 DUP3 LT ISZERO PUSH2 0x1140 JUMP JUMPDEST DUP2 DUP2 ISZERO PUSH2 0xB27 JUMPI JUMPDEST CALLER SWAP1 CALL ISZERO PUSH2 0xB1C JUMPI JUMPDEST PUSH1 0x40 MLOAD SWAP2 DUP3 MSTORE PUSH1 0x20 DUP3 ADD MSTORE PUSH32 0xA8FF15EB642B39DA3AB82BB74A87B76CC3E1AEF2B82B70BC2A35458386DB29AA PUSH1 0x40 CALLER SWAP3 LOG2 PUSH1 0x1 PUSH0 MLOAD PUSH1 0x20 PUSH2 0x15CB PUSH0 CODECOPY PUSH0 MLOAD SWAP1 PUSH0 MSTORE SSTORE STOP JUMPDEST PUSH1 0x40 MLOAD RETURNDATASIZE PUSH0 DUP3 RETURNDATACOPY RETURNDATASIZE SWAP1 REVERT JUMPDEST POP PUSH2 0x8FC PUSH2 0xACF JUMP JUMPDEST POP PUSH2 0xB3D SWAP1 DUP3 LT ISZERO PUSH2 0x1140 JUMP JUMPDEST PUSH0 DUP1 DUP1 DUP1 DUP5 CALLER DUP3 CALL PUSH2 0xAD8 JUMPI PUSH1 0x40 MLOAD RETURNDATASIZE PUSH0 DUP3 RETURNDATACOPY RETURNDATASIZE SWAP1 REVERT JUMPDEST PUSH1 0x40 MLOAD PUSH3 0x461BCD PUSH1 0xE5 SHL DUP2 MSTORE PUSH1 0x20 PUSH1 0x4 DUP3 ADD MSTORE PUSH1 0x7 PUSH1 0x24 DUP3 ADD MSTORE PUSH7 0x42DEEAE88AE8D PUSH1 0xCB SHL PUSH1 0x44 DUP3 ADD MSTORE PUSH1 0x64 SWAP1 REVERT JUMPDEST PUSH4 0x4E487B71 PUSH1 0xE0 SHL PUSH0 MSTORE PUSH1 0x11 PUSH1 0x4 MSTORE PUSH1 0x24 PUSH0 REVERT JUMPDEST SWAP1 POP TIMESTAMP GT ISZERO DUP5 PUSH2 0x9AA JUMP JUMPDEST PUSH1 0x40 MLOAD PUSH3 0x461BCD PUSH1 0xE5 SHL DUP2 MSTORE PUSH1 0x20 PUSH1 0x4 DUP3 ADD MSTORE PUSH1 0x7 PUSH1 0x24 DUP3 ADD MSTORE PUSH7 0x42DAD2DC8AE8D PUSH1 0xCB SHL PUSH1 0x44 DUP3 ADD MSTORE PUSH1 0x64 SWAP1 REVERT JUMPDEST PUSH1 0x40 MLOAD PUSH3 0x461BCD PUSH1 0xE5 SHL DUP2 MSTORE PUSH1 0x20 PUSH1 0x4 DUP3 ADD MSTORE PUSH1 0x6 PUSH1 0x24 DUP3 ADD MSTORE PUSH6 0x10BA37B5B2B7 PUSH1 0xD1 SHL PUSH1 0x44 DUP3 ADD MSTORE PUSH1 0x64 SWAP1 REVERT JUMPDEST PUSH0 DUP1 REVERT JUMPDEST CALLVALUE PUSH2 0xBFF JUMPI PUSH0 CALLDATASIZE PUSH1 0x3 NOT ADD SLT PUSH2 0xBFF JUMPI PUSH1 0x20 PUSH1 0x40 MLOAD PUSH8 0x8AC7230489E80000 DUP2 MSTORE RETURN JUMPDEST CALLVALUE PUSH2 0xBFF JUMPI PUSH0 CALLDATASIZE PUSH1 0x3 NOT ADD SLT PUSH2 0xBFF JUMPI PUSH1 0x20 PUSH1 0x2 SLOAD PUSH1 0x40 MLOAD SWAP1 DUP2 MSTORE RETURN JUMPDEST CALLVALUE PUSH2 0xBFF JUMPI PUSH0 CALLDATASIZE PUSH1 0x3 NOT ADD SLT PUSH2 0xBFF JUMPI PUSH1 0x20 PUSH1 0x40 MLOAD PUSH2 0x12C DUP2 MSTORE RETURN JUMPDEST CALLVALUE PUSH2 0xBFF JUMPI PUSH1 0x20 CALLDATASIZE PUSH1 0x3 NOT ADD SLT PUSH2 0xBFF JUMPI PUSH1 0x5 SLOAD PUSH1 0x1 PUSH1 0x1 PUSH1 0xA0 SHL SUB AND PUSH1 0x4 CALLDATALOAD PUSH2 0xC89 CALLER DUP4 EQ PUSH2 0x11C0 JUMP JUMPDEST PUSH1 0x6 SLOAD SWAP2 DUP3 DUP3 GT PUSH2 0xCC0 JUMPI PUSH0 DUP1 DUP1 DUP5 DUP2 SWAP5 PUSH2 0xCA4 DUP3 DUP10 PUSH2 0x1102 JUMP JUMPDEST PUSH1 0x6 SSTORE DUP3 DUP3 ISZERO PUSH2 0xCB7 JUMPI JUMPDEST CALL ISZERO PUSH2 0xB1C JUMPI STOP JUMPDEST POP PUSH2 0x8FC PUSH2 0xCAF JUMP JUMPDEST PUSH1 0x40 MLOAD PUSH3 0x461BCD PUSH1 0xE5 SHL DUP2 MSTORE PUSH1 0x20 PUSH1 0x4 DUP3 ADD MSTORE PUSH1 0x14 PUSH1 0x24 DUP3 ADD MSTORE PUSH20 0x616D742065786365656473207472656173757279 PUSH1 0x60 SHL PUSH1 0x44 DUP3 ADD MSTORE PUSH1 0x64 SWAP1 REVERT JUMPDEST CALLVALUE PUSH2 0xBFF JUMPI PUSH1 0x40 CALLDATASIZE PUSH1 0x3 NOT ADD SLT PUSH2 0xBFF JUMPI PUSH2 0xD15 PUSH2 0x1079 JUMP JUMPDEST PUSH1 0x24 CALLDATALOAD SWAP1 CALLER ISZERO PUSH2 0xD91 JUMPI PUSH1 0x1 PUSH1 0x1 PUSH1 0xA0 SHL SUB AND SWAP1 DUP2 ISZERO PUSH2 0xD7E JUMPI CALLER PUSH0 MSTORE PUSH1 0x1 PUSH1 0x20 MSTORE PUSH1 0x40 PUSH0 KECCAK256 DUP3 PUSH0 MSTORE PUSH1 0x20 MSTORE DUP1 PUSH1 0x40 PUSH0 KECCAK256 SSTORE PUSH1 0x40 MLOAD SWAP1 DUP2 MSTORE PUSH32 0x8C5BE1E5EBEC7D5BD14F71427D1E84F3DD0314C0F7B2291E5B200AC8C7C3B925 PUSH1 0x20 CALLER SWAP3 LOG3 PUSH1 0x20 PUSH1 0x40 MLOAD PUSH1 0x1 DUP2 MSTORE RETURN JUMPDEST PUSH4 0x4A1406B1 PUSH1 0xE1 SHL PUSH0 MSTORE PUSH0 PUSH1 0x4 MSTORE PUSH1 0x24 PUSH0 REVERT JUMPDEST PUSH4 0xE602DF05 PUSH1 0xE0 SHL PUSH0 MSTORE PUSH0 PUSH1 0x4 MSTORE PUSH1 0x24 PUSH0 REVERT JUMPDEST CALLVALUE PUSH2 0xBFF JUMPI PUSH0 CALLDATASIZE PUSH1 0x3 NOT ADD SLT PUSH2 0xBFF JUMPI PUSH1 0x40 MLOAD PUSH0 PUSH1 0x3 SLOAD DUP1 PUSH1 0x1 SHR SWAP1 PUSH1 0x1 DUP2 AND DUP1 ISZERO PUSH2 0xE8E JUMPI JUMPDEST PUSH1 0x20 DUP4 LT DUP2 EQ PUSH2 0xE7A JUMPI DUP3 DUP6 MSTORE SWAP1 DUP2 ISZERO PUSH2 0xE56 JUMPI POP PUSH1 0x1 EQ PUSH2 0xDF8 JUMPI JUMPDEST PUSH2 0x6AE DUP4 PUSH2 0x69A DUP2 DUP6 SUB DUP3 PUSH2 0x1189 JUMP JUMPDEST PUSH1 0x3 PUSH0 SWAP1 DUP2 MSTORE PUSH32 0xC2575A0E9E593C00F959F8C92F12DB2869C3395A3B0502D05E2516446F71F85B SWAP4 SWAP3 POP SWAP1 JUMPDEST DUP1 DUP3 LT PUSH2 0xE3C JUMPI POP SWAP1 SWAP2 POP DUP2 ADD PUSH1 0x20 ADD PUSH2 0x69A PUSH2 0xDE8 JUMP JUMPDEST SWAP2 SWAP3 PUSH1 0x1 DUP2 PUSH1 0x20 SWAP3 SLOAD DUP4 DUP6 DUP9 ADD ADD MSTORE ADD SWAP2 ADD SWAP1 SWAP3 SWAP2 PUSH2 0xE24 JUMP JUMPDEST PUSH1 0xFF NOT AND PUSH1 0x20 DUP1 DUP7 ADD SWAP2 SWAP1 SWAP2 MSTORE SWAP2 ISZERO ISZERO PUSH1 0x5 SHL DUP5 ADD SWAP1 SWAP2 ADD SWAP2 POP PUSH2 0x69A SWAP1 POP PUSH2 0xDE8 JUMP JUMPDEST PUSH4 0x4E487B71 PUSH1 0xE0 SHL PUSH0 MSTORE PUSH1 0x22 PUSH1 0x4 MSTORE PUSH1 0x24 PUSH0 REVERT JUMPDEST SWAP2 PUSH1 0x7F AND SWAP2 PUSH2 0xDCB JUMP JUMPDEST PUSH1 0x40 CALLDATASIZE PUSH1 0x3 NOT ADD SLT PUSH2 0xBFF JUMPI PUSH1 0x4 CALLDATALOAD PUSH1 0x24 CALLDATALOAD PUSH2 0xEB2 PUSH2 0x1363 JUMP JUMPDEST CALLVALUE ISZERO PUSH2 0x102A JUMPI DUP2 ISZERO PUSH2 0xFF9 JUMPI DUP1 PUSH2 0xED1 SWAP2 ISZERO SWAP1 DUP2 ISZERO PUSH2 0xFEE JUMPI POP PUSH2 0x10BF JUMP JUMPDEST SELFBALANCE PUSH9 0x1236EFCBCBB340000 ADD DUP1 PUSH9 0x1236EFCBCBB340000 GT PUSH2 0xB83 JUMPI PUSH2 0xEFD PUSH2 0xF31 SWAP2 PUSH1 0x6 SLOAD SWAP1 PUSH2 0x1102 JUMP JUMPDEST PUSH2 0xA28 PUSH2 0xF0A CALLVALUE DUP4 PUSH2 0x1102 JUMP JUMPDEST SWAP2 PUSH0 MLOAD PUSH1 0x20 PUSH2 0x15AB PUSH0 CODECOPY PUSH0 MLOAD SWAP1 PUSH0 MSTORE PUSH0 MSTORE PUSH0 PUSH1 0x20 MSTORE PUSH2 0xA23 PUSH2 0xA19 PUSH1 0x40 PUSH0 KECCAK256 SLOAD DUP1 SWAP6 PUSH2 0x110F JUMP JUMPDEST SWAP1 DUP2 ISZERO PUSH2 0xFBD JUMPI PUSH2 0xF44 SWAP1 DUP3 LT ISZERO PUSH2 0x1140 JUMP JUMPDEST PUSH2 0xF56 PUSH1 0x1 PUSH1 0xFF NOT PUSH1 0x7 SLOAD AND OR PUSH1 0x7 SSTORE JUMP JUMPDEST PUSH2 0xF6E DUP2 CALLER PUSH0 MLOAD PUSH1 0x20 PUSH2 0x15AB PUSH0 CODECOPY PUSH0 MLOAD SWAP1 PUSH0 MSTORE PUSH2 0x14A3 JUMP JUMPDEST PUSH1 0xFF NOT PUSH1 0x7 SLOAD AND PUSH1 0x7 SSTORE PUSH1 0x40 MLOAD SWAP1 DUP2 MSTORE CALLVALUE PUSH1 0x20 DUP3 ADD MSTORE PUSH32 0xF6F342132C7DE5E5A1E99C8EFAE544C94731F3FF093F5C3C97C6973D9415CDFB PUSH1 0x40 CALLER SWAP3 LOG2 PUSH1 0x1 PUSH0 MLOAD PUSH1 0x20 PUSH2 0x15CB PUSH0 CODECOPY PUSH0 MLOAD SWAP1 PUSH0 MSTORE SSTORE STOP JUMPDEST PUSH1 0x40 MLOAD PUSH3 0x461BCD PUSH1 0xE5 SHL DUP2 MSTORE PUSH1 0x20 PUSH1 0x4 DUP3 ADD MSTORE PUSH1 0x9 PUSH1 0x24 DUP3 ADD MSTORE PUSH9 0x10B7BABA2A37B5B2B7 PUSH1 0xB9 SHL PUSH1 0x44 DUP3 ADD MSTORE PUSH1 0x64 SWAP1 REVERT JUMPDEST SWAP1 POP TIMESTAMP GT ISZERO DUP4 PUSH2 0x9AA JUMP JUMPDEST PUSH1 0x40 MLOAD PUSH3 0x461BCD PUSH1 0xE5 SHL DUP2 MSTORE PUSH1 0x20 PUSH1 0x4 DUP3 ADD MSTORE PUSH1 0x9 PUSH1 0x24 DUP3 ADD MSTORE PUSH9 0x10B6B4B72A37B5B2B7 PUSH1 0xB9 SHL PUSH1 0x44 DUP3 ADD MSTORE PUSH1 0x64 SWAP1 REVERT JUMPDEST PUSH1 0x64 PUSH1 0x40 MLOAD PUSH3 0x461BCD PUSH1 0xE5 SHL DUP2 MSTORE PUSH1 0x20 PUSH1 0x4 DUP3 ADD MSTORE PUSH1 0x4 PUSH1 0x24 DUP3 ADD MSTORE PUSH4 0x42CAE8D PUSH1 0xE3 SHL PUSH1 0x44 DUP3 ADD MSTORE REVERT JUMPDEST DUP1 MLOAD DUP1 DUP4 MSTORE PUSH1 0x20 SWAP3 SWAP2 DUP2 SWAP1 DUP5 ADD DUP5 DUP5 ADD MCOPY PUSH0 DUP3 DUP3 ADD DUP5 ADD MSTORE PUSH1 0x1F ADD PUSH1 0x1F NOT AND ADD ADD SWAP1 JUMP JUMPDEST PUSH1 0x4 CALLDATALOAD SWAP1 PUSH1 0x1 PUSH1 0x1 PUSH1 0xA0 SHL SUB DUP3 AND DUP3 SUB PUSH2 0xBFF JUMPI JUMP JUMPDEST PUSH1 0x24 CALLDATALOAD SWAP1 PUSH1 0x1 PUSH1 0x1 PUSH1 0xA0 SHL SUB DUP3 AND DUP3 SUB PUSH2 0xBFF JUMPI JUMP JUMPDEST CALLVALUE PUSH2 0xBFF JUMPI PUSH0 CALLDATASIZE PUSH1 0x3 NOT ADD SLT PUSH2 0xBFF JUMPI PUSH1 0x20 PUSH1 0x40 MLOAD PUSH0 DUP2 MSTORE RETURN JUMPDEST ISZERO PUSH2 0x10C6 JUMPI JUMP JUMPDEST PUSH1 0x40 MLOAD PUSH3 0x461BCD PUSH1 0xE5 SHL DUP2 MSTORE PUSH1 0x20 PUSH1 0x4 DUP3 ADD MSTORE PUSH1 0x7 PUSH1 0x24 DUP3 ADD MSTORE PUSH7 0x21657870697265 PUSH1 0xC8 SHL PUSH1 0x44 DUP3 ADD MSTORE PUSH1 0x64 SWAP1 REVERT JUMPDEST SWAP2 SWAP1 DUP3 ADD DUP1 SWAP3 GT PUSH2 0xB83 JUMPI JUMP JUMPDEST SWAP2 SWAP1 DUP3 SUB SWAP2 DUP3 GT PUSH2 0xB83 JUMPI JUMP JUMPDEST DUP2 DUP2 MUL SWAP3 SWAP2 DUP2 ISZERO SWAP2 DUP5 DIV EQ OR ISZERO PUSH2 0xB83 JUMPI JUMP JUMPDEST DUP2 ISZERO PUSH2 0x112C JUMPI DIV SWAP1 JUMP JUMPDEST PUSH4 0x4E487B71 PUSH1 0xE0 SHL PUSH0 MSTORE PUSH1 0x12 PUSH1 0x4 MSTORE PUSH1 0x24 PUSH0 REVERT JUMPDEST ISZERO PUSH2 0x1147 JUMPI JUMP JUMPDEST PUSH1 0x40 MLOAD PUSH3 0x461BCD PUSH1 0xE5 SHL DUP2 MSTORE PUSH1 0x20 PUSH1 0x4 DUP3 ADD MSTORE PUSH1 0x1A PUSH1 0x24 DUP3 ADD MSTORE PUSH26 0x125394D551919250D251539517D3D55514155517D05353D55395 PUSH1 0x32 SHL PUSH1 0x44 DUP3 ADD MSTORE PUSH1 0x64 SWAP1 REVERT JUMPDEST PUSH1 0x1F SWAP1 SWAP2 ADD PUSH1 0x1F NOT AND DUP2 ADD SWAP1 PUSH1 0x1 PUSH1 0x1 PUSH1 0x40 SHL SUB DUP3 GT SWAP1 DUP3 LT OR PUSH2 0x11AC JUMPI PUSH1 0x40 MSTORE JUMP JUMPDEST PUSH4 0x4E487B71 PUSH1 0xE0 SHL PUSH0 MSTORE PUSH1 0x41 PUSH1 0x4 MSTORE PUSH1 0x24 PUSH0 REVERT JUMPDEST ISZERO PUSH2 0x11C7 JUMPI JUMP JUMPDEST PUSH1 0x40 MLOAD PUSH3 0x461BCD PUSH1 0xE5 SHL DUP2 MSTORE PUSH1 0x20 PUSH1 0x4 DUP3 ADD MSTORE PUSH1 0x9 PUSH1 0x24 DUP3 ADD MSTORE PUSH9 0x217472656173757279 PUSH1 0xB8 SHL PUSH1 0x44 DUP3 ADD MSTORE PUSH1 0x64 SWAP1 REVERT JUMPDEST DUP1 ISZERO PUSH2 0x127C JUMPI PUSH2 0x1237 SWAP1 PUSH2 0xA28 PUSH2 0x120D PUSH2 0x12F6 JUMP JUMPDEST SWAP2 PUSH0 MLOAD PUSH1 0x20 PUSH2 0x15AB PUSH0 CODECOPY PUSH0 MLOAD SWAP1 PUSH0 MSTORE PUSH0 MSTORE PUSH0 PUSH1 0x20 MSTORE PUSH2 0xA23 PUSH2 0xA19 PUSH2 0xA12 PUSH1 0x40 PUSH0 KECCAK256 SLOAD SWAP4 DUP5 PUSH2 0x10F5 JUMP JUMPDEST PUSH32 0x0 DUP1 PUSH2 0x1261 JUMPI POP SWAP1 JUMP JUMPDEST SWAP1 PUSH2 0x2710 PUSH2 0x1272 PUSH2 0x1279 SWAP4 DUP4 PUSH2 0x110F JUMP JUMPDEST DIV SWAP1 PUSH2 0x1102 JUMP JUMPDEST SWAP1 JUMP JUMPDEST POP PUSH0 SWAP1 JUMP JUMPDEST PUSH2 0x1289 PUSH2 0x12F6 JUMP JUMPDEST PUSH0 MLOAD PUSH1 0x20 PUSH2 0x15AB PUSH0 CODECOPY PUSH0 MLOAD SWAP1 PUSH0 MSTORE PUSH0 SWAP1 DUP2 MSTORE PUSH1 0x20 MSTORE PUSH32 0xF043C50FE795C69F30B8FF78B84032DC53A9D87CA283AE10A1DACFBB648E83EF SLOAD DUP1 ISZERO PUSH2 0x12F0 JUMPI PUSH8 0xDE0B6B3A7640000 DUP3 MUL SWAP2 DUP1 DUP4 DIV PUSH8 0xDE0B6B3A7640000 EQ SWAP1 ISZERO OR ISZERO PUSH2 0xB83 JUMPI PUSH2 0x1279 SWAP2 PUSH2 0x1122 JUMP JUMPDEST POP POP PUSH0 SWAP1 JUMP JUMPDEST SELFBALANCE PUSH9 0x1236EFCBCBB340000 ADD DUP1 PUSH9 0x1236EFCBCBB340000 GT PUSH2 0xB83 JUMPI PUSH1 0x6 SLOAD PUSH2 0x1279 SWAP2 PUSH2 0x1102 JUMP JUMPDEST DUP1 ISZERO PUSH2 0x127C JUMPI PUSH2 0x1279 SWAP1 PUSH2 0xA28 PUSH2 0x133D PUSH2 0x1336 PUSH2 0x12F6 JUMP JUMPDEST SWAP3 DUP4 PUSH2 0x10F5 JUMP JUMPDEST PUSH0 MLOAD PUSH1 0x20 PUSH2 0x15AB PUSH0 CODECOPY PUSH0 MLOAD SWAP1 PUSH0 MSTORE PUSH0 MSTORE PUSH0 PUSH1 0x20 MSTORE PUSH2 0xA23 PUSH2 0xA19 PUSH1 0x40 PUSH0 KECCAK256 SLOAD DUP1 SWAP6 PUSH2 0x110F JUMP JUMPDEST PUSH1 0x2 PUSH0 MLOAD PUSH1 0x20 PUSH2 0x15CB PUSH0 CODECOPY PUSH0 MLOAD SWAP1 PUSH0 MSTORE SLOAD EQ PUSH2 0x138C JUMPI PUSH1 0x2 PUSH0 MLOAD PUSH1 0x20 PUSH2 0x15CB PUSH0 CODECOPY PUSH0 MLOAD SWAP1 PUSH0 MSTORE SSTORE JUMP JUMPDEST PUSH4 0x3EE5AEB5 PUSH1 0xE0 SHL PUSH0 MSTORE PUSH1 0x4 PUSH0 REVERT JUMPDEST DUP2 ISZERO PUSH2 0x1463 JUMPI PUSH1 0x1 PUSH1 0x1 PUSH1 0xA0 SHL SUB DUP2 AND PUSH0 DUP2 DUP2 MSTORE PUSH1 0x20 DUP2 SWAP1 MSTORE PUSH1 0x40 SWAP1 KECCAK256 SLOAD ISZERO PUSH2 0x1413 JUMPI PUSH0 MLOAD PUSH1 0x20 PUSH2 0x15AB PUSH0 CODECOPY PUSH0 MLOAD SWAP1 PUSH0 MSTORE SUB PUSH2 0x13D5 JUMPI POP POP JUMP JUMPDEST DUP2 PUSH2 0x13DF SWAP2 PUSH2 0x1590 JUMP JUMPDEST PUSH0 MLOAD PUSH1 0x20 PUSH2 0x15AB PUSH0 CODECOPY PUSH0 MLOAD SWAP1 PUSH0 MSTORE PUSH0 MSTORE PUSH0 PUSH1 0x20 MSTORE PUSH1 0x40 PUSH0 KECCAK256 SLOAD PUSH2 0x1404 DUP2 PUSH1 0x2 SLOAD PUSH2 0x1102 JUMP JUMPDEST SWAP1 DUP2 ISZERO ISZERO DUP1 PUSH2 0x145A JUMPI JUMPDEST PUSH2 0x1418 JUMPI JUMPDEST POP POP POP JUMP JUMPDEST PUSH2 0x1425 SWAP3 PUSH2 0xA23 SWAP2 PUSH2 0x110F JUMP JUMPDEST DUP1 PUSH2 0x142D JUMPI POP JUMP JUMPDEST PUSH2 0x1445 SWAP1 PUSH0 PUSH0 MLOAD PUSH1 0x20 PUSH2 0x15AB PUSH0 CODECOPY PUSH0 MLOAD SWAP1 PUSH0 MSTORE PUSH2 0x14A3 JUMP JUMPDEST JUMP JUMPDEST PUSH4 0x4B637E8F PUSH1 0xE1 SHL PUSH0 MSTORE PUSH0 PUSH1 0x4 MSTORE PUSH1 0x24 PUSH0 REVERT JUMPDEST POP DUP1 ISZERO ISZERO PUSH2 0x140E JUMP JUMPDEST POP POP JUMP JUMPDEST SWAP2 SWAP1 PUSH1 0x1 PUSH1 0x1 PUSH1 0xA0 SHL SUB DUP4 AND ISZERO PUSH2 0x1447 JUMPI PUSH1 0x1 PUSH1 0x1 PUSH1 0xA0 SHL SUB DUP2 AND ISZERO PUSH2 0x1490 JUMPI PUSH2 0x1445 SWAP3 PUSH2 0x14A3 JUMP JUMPDEST PUSH4 0xEC442F05 PUSH1 0xE0 SHL PUSH0 MSTORE PUSH0 PUSH1 0x4 MSTORE PUSH1 0x24 PUSH0 REVERT JUMPDEST PUSH1 0x1 PUSH1 0x1 PUSH1 0xA0 SHL SUB AND DUP1 ISZERO SWAP3 SWAP2 DUP4 ISZERO PUSH2 0x154E JUMPI PUSH2 0x14C2 DUP4 PUSH1 0x2 SLOAD PUSH2 0x10F5 JUMP JUMPDEST PUSH1 0x2 SSTORE JUMPDEST PUSH1 0x1 PUSH1 0x1 PUSH1 0xA0 SHL SUB AND DUP1 ISZERO SWAP3 SWAP1 SWAP2 SWAP1 PUSH32 0xDDF252AD1BE2C89B69C2B068FC378DAA952BA7F163C4A11628F55A4DF523B3EF SWAP1 PUSH1 0x20 SWAP1 DUP6 ISZERO PUSH2 0x1539 JUMPI DUP1 PUSH1 0x2 SLOAD SUB PUSH1 0x2 SSTORE JUMPDEST PUSH1 0x40 MLOAD SWAP1 DUP2 MSTORE LOG3 DUP2 ISZERO PUSH2 0x1531 JUMPI JUMPDEST POP DUP1 ISZERO PUSH2 0x1525 JUMPI JUMPDEST PUSH2 0x1445 JUMPI JUMP JUMPDEST POP PUSH1 0xFF PUSH1 0x7 SLOAD AND PUSH2 0x151F JUMP JUMPDEST SWAP1 POP PUSH0 PUSH2 0x1517 JUMP JUMPDEST DUP5 PUSH0 MSTORE PUSH0 DUP3 MSTORE PUSH1 0x40 PUSH0 KECCAK256 DUP2 DUP2 SLOAD ADD SWAP1 SSTORE PUSH2 0x1509 JUMP JUMPDEST DUP2 PUSH0 MSTORE PUSH0 PUSH1 0x20 MSTORE PUSH1 0x40 PUSH0 KECCAK256 SLOAD DUP4 DUP2 LT PUSH2 0x1575 JUMPI DUP4 SWAP1 DUP4 PUSH0 MSTORE PUSH0 PUSH1 0x20 MSTORE SUB PUSH1 0x40 PUSH0 KECCAK256 SSTORE PUSH2 0x14C6 JUMP JUMPDEST SWAP2 SWAP1 POP PUSH4 0x391434E3 PUSH1 0xE2 SHL PUSH0 MSTORE PUSH1 0x4 MSTORE PUSH1 0x24 MSTORE PUSH1 0x44 MSTORE PUSH1 0x64 PUSH0 REVERT JUMPDEST SWAP1 PUSH1 0x1 PUSH1 0x1 PUSH1 0xA0 SHL SUB DUP3 AND ISZERO PUSH2 0x1447 JUMPI PUSH0 PUSH2 0x1445 SWAP3 PUSH2 0x14A3 JUMP INVALID STOP STOP STOP STOP STOP STOP STOP STOP STOP STOP STOP STOP GT GT GT GT GT GT GT GT GT GT GT GT GT GT GT GT GT GT GT GT SWAP12 PUSH24 0x9B17422D0DF92223018B32B4D1FA46E071723D6817E2486D STOP EXTCODESIZE EOFCREATE 0xC5 PUSH0 STOP LOG2 PUSH5 0x6970667358 0x22 SLT KECCAK256 0xC6 0xA8 PUSH30 0x6B161D6F4131C3C5305991195AABB9394276581876FAC2D37E759367A364 PUSH20 0x6F6C634300082300330000000000000000000000 "},"methodIdentifiers":{"CONTRACT_CHECK_BUY_LEVEL()":"a10499b1","CONTRACT_CHECK_SELL_LEVEL()":"829f743f","DEPLOYER()":"c1b8411a","INITIAL_TOKEN_RESERVE()":"9ff2a268","INITIAL_VIRTUAL_ETH()":"45b18f25","MARKET_BUY_ETH_LIMIT()":"327ba06c","MARKET_OPEN_STAGE()":"3dae21aa","MARKET_WHITELIST_BASE_AMT()":"1efbe895","MARKET_WHITELIST_TOKEN()":"eb0ee934","MARKET_WHITELIST_TOKEN_BP()":"25653eca","MAX_TREASURY_BP()":"17f185eb","SELL_BURN_BP()":"dc6538e2","SELL_TREASURY_BP()":"704c6d09","TRANSFER_BURN_BP()":"cf266bc3","allowance(address,address)":"dd62ed3e","approve(address,uint256)":"095ea7b3","balanceOf(address)":"70a08231","buyToken(uint256,uint256)":"057466ea","decimals()":"313ce567","estimateBuyReturn(uint256)":"d52b9164","estimateSellReturn(uint256)":"314c7f69","getEthReserve()":"8a9118c0","getTokenInfo()":"abb1dc44","getTokenPrice()":"4b94f50e","getTokenReserve()":"f1d9f88b","name()":"06fdde03","sellToken(uint256,uint256,uint256)":"1f181d57","setTreasuryAddr(address)":"a7e05b9c","symbol()":"95d89b41","totalSupply()":"18160ddd","transfer(address,uint256)":"a9059cbb","transferFrom(address,address,uint256)":"23b872dd","treasuryAddr()":"30d9a62a","treasuryAmtTotal()":"ff71b4e5","withdrawTreasury(uint256)":"11f1fc99"}}}}}