{
  "_format": "hh-sol-artifact-1",
  "contractName": "nine527",
  "sourceName": "src/nine527.sol",
  "abi": [
    {
      "inputs": [
        {
          "internalType": "string",
          "name": "tokenName_",
          "type": "string"
        },
        {
          "internalType": "string",
          "name": "tokenSymbol_",
          "type": "string"
        },
        {
          "internalType": "uint256",
          "name": "treasuryBP_",
          "type": "uint256"
        },
        {
          "internalType": "address",
          "name": "deployer_",
          "type": "address"
        }
      ],
      "stateMutability": "nonpayable",
      "type": "constructor"
    },
    {
      "inputs": [
        {
          "internalType": "address",
          "name": "spender",
          "type": "address"
        },
        {
          "internalType": "uint256",
          "name": "allowance",
          "type": "uint256"
        },
        {
          "internalType": "uint256",
          "name": "needed",
          "type": "uint256"
        }
      ],
      "name": "ERC20InsufficientAllowance",
      "type": "error"
    },
    {
      "inputs": [
        {
          "internalType": "address",
          "name": "sender",
          "type": "address"
        },
        {
          "internalType": "uint256",
          "name": "balance",
          "type": "uint256"
        },
        {
          "internalType": "uint256",
          "name": "needed",
          "type": "uint256"
        }
      ],
      "name": "ERC20InsufficientBalance",
      "type": "error"
    },
    {
      "inputs": [
        {
          "internalType": "address",
          "name": "approver",
          "type": "address"
        }
      ],
      "name": "ERC20InvalidApprover",
      "type": "error"
    },
    {
      "inputs": [
        {
          "internalType": "address",
          "name": "receiver",
          "type": "address"
        }
      ],
      "name": "ERC20InvalidReceiver",
      "type": "error"
    },
    {
      "inputs": [
        {
          "internalType": "address",
          "name": "sender",
          "type": "address"
        }
      ],
      "name": "ERC20InvalidSender",
      "type": "error"
    },
    {
      "inputs": [
        {
          "internalType": "address",
          "name": "spender",
          "type": "address"
        }
      ],
      "name": "ERC20InvalidSpender",
      "type": "error"
    },
    {
      "inputs": [],
      "name": "ReentrancyGuardReentrantCall",
      "type": "error"
    },
    {
      "anonymous": false,
      "inputs": [
        {
          "indexed": true,
          "internalType": "address",
          "name": "owner",
          "type": "address"
        },
        {
          "indexed": true,
          "internalType": "address",
          "name": "spender",
          "type": "address"
        },
        {
          "indexed": false,
          "internalType": "uint256",
          "name": "value",
          "type": "uint256"
        }
      ],
      "name": "Approval",
      "type": "event"
    },
    {
      "anonymous": false,
      "inputs": [
        {
          "indexed": true,
          "internalType": "address",
          "name": "user",
          "type": "address"
        },
        {
          "indexed": false,
          "internalType": "uint256",
          "name": "tokenAmt",
          "type": "uint256"
        },
        {
          "indexed": false,
          "internalType": "uint256",
          "name": "ethAmt",
          "type": "uint256"
        }
      ],
      "name": "BuyToken",
      "type": "event"
    },
    {
      "anonymous": false,
      "inputs": [
        {
          "indexed": true,
          "internalType": "address",
          "name": "user",
          "type": "address"
        },
        {
          "indexed": false,
          "internalType": "uint256",
          "name": "tokenAmt",
          "type": "uint256"
        },
        {
          "indexed": false,
          "internalType": "uint256",
          "name": "ethAmt",
          "type": "uint256"
        }
      ],
      "name": "SellToken",
      "type": "event"
    },
    {
      "anonymous": false,
      "inputs": [
        {
          "indexed": true,
          "internalType": "address",
          "name": "from",
          "type": "address"
        },
        {
          "indexed": true,
          "internalType": "address",
          "name": "to",
          "type": "address"
        },
        {
          "indexed": false,
          "internalType": "uint256",
          "name": "value",
          "type": "uint256"
        }
      ],
      "name": "Transfer",
      "type": "event"
    },
    {
      "inputs": [],
      "name": "CONTRACT_CHECK_BUY_LEVEL",
      "outputs": [
        {
          "internalType": "uint256",
          "name": "",
          "type": "uint256"
        }
      ],
      "stateMutability": "view",
      "type": "function"
    },
    {
      "inputs": [],
      "name": "CONTRACT_CHECK_SELL_LEVEL",
      "outputs": [
        {
          "internalType": "uint256",
          "name": "",
          "type": "uint256"
        }
      ],
      "stateMutability": "view",
      "type": "function"
    },
    {
      "inputs": [],
      "name": "DEPLOYER",
      "outputs": [
        {
          "internalType": "address",
          "name": "",
          "type": "address"
        }
      ],
      "stateMutability": "view",
      "type": "function"
    },
    {
      "inputs": [],
      "name": "INITIAL_TOKEN_RESERVE",
      "outputs": [
        {
          "internalType": "uint256",
          "name": "",
          "type": "uint256"
        }
      ],
      "stateMutability": "view",
      "type": "function"
    },
    {
      "inputs": [],
      "name": "INITIAL_VIRTUAL_ETH",
      "outputs": [
        {
          "internalType": "uint256",
          "name": "",
          "type": "uint256"
        }
      ],
      "stateMutability": "view",
      "type": "function"
    },
    {
      "inputs": [],
      "name": "MARKET_BUY_ETH_LIMIT",
      "outputs": [
        {
          "internalType": "uint256",
          "name": "",
          "type": "uint256"
        }
      ],
      "stateMutability": "view",
      "type": "function"
    },
    {
      "inputs": [],
      "name": "MARKET_OPEN_STAGE",
      "outputs": [
        {
          "internalType": "uint256",
          "name": "",
          "type": "uint256"
        }
      ],
      "stateMutability": "view",
      "type": "function"
    },
    {
      "inputs": [],
      "name": "MARKET_WHITELIST_BASE_AMT",
      "outputs": [
        {
          "internalType": "uint256",
          "name": "",
          "type": "uint256"
        }
      ],
      "stateMutability": "view",
      "type": "function"
    },
    {
      "inputs": [],
      "name": "MARKET_WHITELIST_TOKEN",
      "outputs": [
        {
          "internalType": "address",
          "name": "",
          "type": "address"
        }
      ],
      "stateMutability": "view",
      "type": "function"
    },
    {
      "inputs": [],
      "name": "MARKET_WHITELIST_TOKEN_BP",
      "outputs": [
        {
          "internalType": "uint256",
          "name": "",
          "type": "uint256"
        }
      ],
      "stateMutability": "view",
      "type": "function"
    },
    {
      "inputs": [],
      "name": "MAX_TREASURY_BP",
      "outputs": [
        {
          "internalType": "uint256",
          "name": "",
          "type": "uint256"
        }
      ],
      "stateMutability": "view",
      "type": "function"
    },
    {
      "inputs": [],
      "name": "SELL_BURN_BP",
      "outputs": [
        {
          "internalType": "uint256",
          "name": "",
          "type": "uint256"
        }
      ],
      "stateMutability": "view",
      "type": "function"
    },
    {
      "inputs": [],
      "name": "SELL_TREASURY_BP",
      "outputs": [
        {
          "internalType": "uint256",
          "name": "",
          "type": "uint256"
        }
      ],
      "stateMutability": "view",
      "type": "function"
    },
    {
      "inputs": [],
      "name": "TRANSFER_BURN_BP",
      "outputs": [
        {
          "internalType": "uint256",
          "name": "",
          "type": "uint256"
        }
      ],
      "stateMutability": "view",
      "type": "function"
    },
    {
      "inputs": [
        {
          "internalType": "address",
          "name": "owner",
          "type": "address"
        },
        {
          "internalType": "address",
          "name": "spender",
          "type": "address"
        }
      ],
      "name": "allowance",
      "outputs": [
        {
          "internalType": "uint256",
          "name": "",
          "type": "uint256"
        }
      ],
      "stateMutability": "view",
      "type": "function"
    },
    {
      "inputs": [
        {
          "internalType": "address",
          "name": "spender",
          "type": "address"
        },
        {
          "internalType": "uint256",
          "name": "value",
          "type": "uint256"
        }
      ],
      "name": "approve",
      "outputs": [
        {
          "internalType": "bool",
          "name": "",
          "type": "bool"
        }
      ],
      "stateMutability": "nonpayable",
      "type": "function"
    },
    {
      "inputs": [
        {
          "internalType": "address",
          "name": "account",
          "type": "address"
        }
      ],
      "name": "balanceOf",
      "outputs": [
        {
          "internalType": "uint256",
          "name": "",
          "type": "uint256"
        }
      ],
      "stateMutability": "view",
      "type": "function"
    },
    {
      "inputs": [
        {
          "internalType": "uint256",
          "name": "minTokenAmt",
          "type": "uint256"
        },
        {
          "internalType": "uint256",
          "name": "expireTimestamp",
          "type": "uint256"
        }
      ],
      "name": "buyToken",
      "outputs": [],
      "stateMutability": "payable",
      "type": "function"
    },
    {
      "inputs": [],
      "name": "decimals",
      "outputs": [
        {
          "internalType": "uint8",
          "name": "",
          "type": "uint8"
        }
      ],
      "stateMutability": "view",
      "type": "function"
    },
    {
      "inputs": [
        {
          "internalType": "uint256",
          "name": "ethAmount",
          "type": "uint256"
        }
      ],
      "name": "estimateBuyReturn",
      "outputs": [
        {
          "internalType": "uint256",
          "name": "",
          "type": "uint256"
        }
      ],
      "stateMutability": "view",
      "type": "function"
    },
    {
      "inputs": [
        {
          "internalType": "uint256",
          "name": "tokenAmount",
          "type": "uint256"
        }
      ],
      "name": "estimateSellReturn",
      "outputs": [
        {
          "internalType": "uint256",
          "name": "",
          "type": "uint256"
        }
      ],
      "stateMutability": "view",
      "type": "function"
    },
    {
      "inputs": [],
      "name": "getEthReserve",
      "outputs": [
        {
          "internalType": "uint256",
          "name": "",
          "type": "uint256"
        }
      ],
      "stateMutability": "view",
      "type": "function"
    },
    {
      "inputs": [],
      "name": "getTokenInfo",
      "outputs": [
        {
          "internalType": "string",
          "name": "tokenName",
          "type": "string"
        },
        {
          "internalType": "string",
          "name": "tokenSymbol",
          "type": "string"
        },
        {
          "internalType": "address",
          "name": "deployer",
          "type": "address"
        },
        {
          "internalType": "uint256",
          "name": "treasuryFeeBP",
          "type": "uint256"
        },
        {
          "internalType": "uint256",
          "name": "currentPrice",
          "type": "uint256"
        },
        {
          "internalType": "uint256",
          "name": "ethReserve",
          "type": "uint256"
        },
        {
          "internalType": "uint256",
          "name": "tokenReserve",
          "type": "uint256"
        }
      ],
      "stateMutability": "view",
      "type": "function"
    },
    {
      "inputs": [],
      "name": "getTokenPrice",
      "outputs": [
        {
          "internalType": "uint256",
          "name": "",
          "type": "uint256"
        }
      ],
      "stateMutability": "view",
      "type": "function"
    },
    {
      "inputs": [],
      "name": "getTokenReserve",
      "outputs": [
        {
          "internalType": "uint256",
          "name": "",
          "type": "uint256"
        }
      ],
      "stateMutability": "view",
      "type": "function"
    },
    {
      "inputs": [],
      "name": "name",
      "outputs": [
        {
          "internalType": "string",
          "name": "",
          "type": "string"
        }
      ],
      "stateMutability": "view",
      "type": "function"
    },
    {
      "inputs": [
        {
          "internalType": "uint256",
          "name": "tokenAmt",
          "type": "uint256"
        },
        {
          "internalType": "uint256",
          "name": "minEthAmt",
          "type": "uint256"
        },
        {
          "internalType": "uint256",
          "name": "expireTimestamp",
          "type": "uint256"
        }
      ],
      "name": "sellToken",
      "outputs": [],
      "stateMutability": "nonpayable",
      "type": "function"
    },
    {
      "inputs": [
        {
          "internalType": "address",
          "name": "newTreasury",
          "type": "address"
        }
      ],
      "name": "setTreasuryAddr",
      "outputs": [],
      "stateMutability": "nonpayable",
      "type": "function"
    },
    {
      "inputs": [],
      "name": "symbol",
      "outputs": [
        {
          "internalType": "string",
          "name": "",
          "type": "string"
        }
      ],
      "stateMutability": "view",
      "type": "function"
    },
    {
      "inputs": [],
      "name": "totalSupply",
      "outputs": [
        {
          "internalType": "uint256",
          "name": "",
          "type": "uint256"
        }
      ],
      "stateMutability": "view",
      "type": "function"
    },
    {
      "inputs": [
        {
          "internalType": "address",
          "name": "to",
          "type": "address"
        },
        {
          "internalType": "uint256",
          "name": "value",
          "type": "uint256"
        }
      ],
      "name": "transfer",
      "outputs": [
        {
          "internalType": "bool",
          "name": "",
          "type": "bool"
        }
      ],
      "stateMutability": "nonpayable",
      "type": "function"
    },
    {
      "inputs": [
        {
          "internalType": "address",
          "name": "from",
          "type": "address"
        },
        {
          "internalType": "address",
          "name": "to",
          "type": "address"
        },
        {
          "internalType": "uint256",
          "name": "value",
          "type": "uint256"
        }
      ],
      "name": "transferFrom",
      "outputs": [
        {
          "internalType": "bool",
          "name": "",
          "type": "bool"
        }
      ],
      "stateMutability": "nonpayable",
      "type": "function"
    },
    {
      "inputs": [],
      "name": "treasuryAddr",
      "outputs": [
        {
          "internalType": "address",
          "name": "",
          "type": "address"
        }
      ],
      "stateMutability": "view",
      "type": "function"
    },
    {
      "inputs": [],
      "name": "treasuryAmtTotal",
      "outputs": [
        {
          "internalType": "uint256",
          "name": "",
          "type": "uint256"
        }
      ],
      "stateMutability": "view",
      "type": "function"
    },
    {
      "inputs": [
        {
          "internalType": "uint256",
          "name": "amt",
          "type": "uint256"
        }
      ],
      "name": "withdrawTreasury",
      "outputs": [],
      "stateMutability": "nonpayable",
      "type": "function"
    },
    {
      "stateMutability": "payable",
      "type": "receive"
    }
  ],
  "bytecode": "0x60c06040523461073957611ed8803803806100198161073d565b9283398101906080818303126107395780516001600160401b0381116107395782610045918301610762565b602082015190926001600160401b03821161073957610065918301610762565b604082015160609092015190926001600160a01b038216908183036107395780516001600160401b0381116103d457600354600181811c9116801561072f575b60208210146103b657601f81116106c1575b50806020601f821160011461065d575f91610652575b508160011b915f199060031b1c1916176003555b84516001600160401b0381116103d457600454600181811c91168015610648575b60208210146103b657601f81116105da575b50806020601f8211600114610576575f9161056b575b508160011b915f199060031b1c1916176004555b60017f9b779b17422d0df92223018b32b4d1fa46e071723d6817e2486d003becc55f005580511561053e5784511561050f5761012c84116104d9578051906001600160401b0382116103d45760085490600182811c921680156104cf575b60208310146103b65781601f849311610459575b50602090601f83116001146103f3575f926103e8575b50508160011b915f199060031b1c1916176008555b83516001600160401b0381116103d457600954600181811c911680156103ca575b60208210146103b657601f8111610348575b50602094601f82116001146102e5579481929394955f926102da575b50508160011b915f199060031b1c1916176009555b6102d55750335b6080819052600580546001600160a01b0319166001600160a01b0390921691909117905560a0526102986b033b2e3c9fd0803ce80000007311111111111111111111111111111111111111115f6107b3565b60405161162090816108b882396080518181816102ab01526103c8015260a0518181816103f7015281816107aa01528181610a6b01526112390152f35b610246565b015190505f8061022a565b601f1982169560095f52805f20915f5b88811061033057508360019596979810610318575b505050811b0160095561023f565b01515f1960f88460031b161c191690555f808061030a565b919260206001819286850151815501940192016102f5565b8181111561020e5760095f52601f820160051c7f6e1540171b6c0c960b71a7020d9f60077f6af931a8bbf590da0223dacf75c7af602084106103ae575b81601f9101920160051c03905f5b8281106103a157505061020e565b5f82820155600101610393565b5f9150610385565b634e487b7160e01b5f52602260045260245ffd5b90607f16906101fc565b634e487b7160e01b5f52604160045260245ffd5b015190505f806101c6565b60085f9081528281209350601f198516905b8181106104415750908460019594939210610429575b505050811b016008556101db565b01515f1960f88460031b161c191690555f808061041b565b92936020600181928786015181550195019301610405565b828111156101b05760085f52909150601f830160051c7ff3f7a9fe364faab93b216da50a3214154f22a0a2b415b23a84c8169e8b636ee3602085106104c7575b849392601f0160051c82900391015f5b8281106104b75750506101b0565b5f818301558594506001016104a9565b5f9150610499565b91607f169161019c565b60405162461bcd60e51b815260206004820152600e60248201526d21747265617375727942503e332560901b6044820152606490fd5b60405162461bcd60e51b8152602060048201526007602482015266085cde5b589bdb60ca1b6044820152606490fd5b60405162461bcd60e51b8152602060048201526005602482015264216e616d6560d81b6044820152606490fd5b90508601515f61012a565b60045f9081528181209250601f198416905b8181106105c2575090836001949392106105aa575b5050811b0160045561013e565b8801515f1960f88460031b161c191690555f8061059d565b9192602060018192868d015181550194019201610588565b818111156101145760045f52601f820160051c7f8a35acfbc15ff81a39ae7d344fd709f28e8600b4aa8c65c6b64bfe7fe36bd19b60208410610640575b81601f9101920160051c03905f5b828110610633575050610114565b5f82820155600101610625565b5f9150610617565b90607f1690610102565b90508201515f6100cd565b60035f9081528181209250601f198416905b8181106106a957509083600194939210610691575b5050811b016003556100e1565b8401515f1960f88460031b161c191690555f80610684565b9192602060018192868901518155019401920161066f565b818111156100b75760035f52601f820160051c7fc2575a0e9e593c00f959f8c92f12db2869c3395a3b0502d05e2516446f71f85b60208410610727575b81601f9101920160051c03905f5b82811061071a5750506100b7565b5f8282015560010161070c565b5f91506106fe565b90607f16906100a5565b5f80fd5b6040519190601f01601f191682016001600160401b038111838210176103d457604052565b81601f82011215610739578051906001600160401b0382116103d457610791601f8301601f191660200161073d565b928284526020838301011161073957815f9260208093018386015e8301015290565b6001600160a01b031680159291831561087557600254838101809111610861576002555b6001600160a01b03168015929091907fddf252ad1be2c89b69c2b068fc378daa952ba7f163c4a11628f55a4df523b3ef90602090851561084c5780600254036002555b604051908152a38115610844575b508015610838575b61083657565b565b5060ff60075416610830565b90505f610828565b845f525f825260405f2081815401905561081a565b634e487b7160e01b5f52601160045260245ffd5b815f525f60205260405f205483811061089c578390835f525f6020520360405f20556107d7565b91905063391434e360e21b5f5260045260245260445260645ffdfe6080604052600436101561001a575b3615610018575f80fd5b005b5f5f3560e01c8063057466ea14610e9857806306fdde0314610da4578063095ea7b314610cfc57806311f1fc9914610c5e57806317f185eb14610c4257806318160ddd14610c255780631efbe89514610c035780631f181d571461096e57806323b872dd1461088c57806325653eca1461026957806330d9a62a14610863578063313ce56714610847578063314c7f6914610828578063327ba06c146102695780633dae21aa1461080c57806345b18f25146107e85780634b94f50e146107cd578063704c6d091461079257806370a082311461075b578063829f743f146102695780638a9118c01461074057806395d89b41146106435780639ff2a2681461061c578063a10499b114610269578063a7e05b9c1461059c578063a9059cbb1461056a578063abb1dc44146102da578063c1b8411a14610295578063cf266bc314610269578063d52b91641461026e578063dc6538e214610269578063dd62ed3e14610216578063eb0ee934146101fa578063f1d9f88b146101c65763ff71b4e5146101a6575061000e565b346101c357806003193601126101c3576020600654604051908152f35b80fd5b50346101c357806003193601126101c3575f5160206115ab5f395f51905f525f525f602052602060405f2054604051908152f35b50346101c357806003193601126101c357602090604051908152f35b50346101c35760403660031901126101c3576040610232611079565b9161023b61108f565b9260018060a01b031681526001602052209060018060a01b03165f52602052602060405f2054604051908152f35b6110a5565b50346101c35760203660031901126101c357602061028d60043561131e565b604051908152f35b50346101c357806003193601126101c3576040517f00000000000000000000000000000000000000000000000000000000000000006001600160a01b03168152602090f35b50346101c357806003193601126101c3576102f3611281565b6102fb6112f6565b905f5160206115ab5f395f51905f525f525f60205260405f20546040519284600854908160011c91600181168015610560575b60208410811461054c57838852879291811561052d57506001146104cf575b61035992500385611189565b6040519480600954908160011c916001811680156104c5575b6020841081146104b157838a5290811561048a5750600114610431575b5050856103a46103b8976103c6930382611189565b60405196879660e0885260e0880190611055565b908682036020880152611055565b7f00000000000000000000000000000000000000000000000000000000000000006001600160a01b031660408601527f00000000000000000000000000000000000000000000000000000000000000006060860152608085019390935260a084015260c08301520390f35b6009815291507f6e1540171b6c0c960b71a7020d9f60077f6af931a8bbf590da0223dacf75c7af5b8183106104705750508501602001856103a461038f565b6001816020929493945483858c0101520191019190610459565b60ff19166020808b019190915292151560051b890190920192508791506103a4905061038f565b634e487b7160e01b83526022600452602483fd5b92607f1692610372565b50600887529086907ff3f7a9fe364faab93b216da50a3214154f22a0a2b415b23a84c8169e8b636ee35b8183106105115750509060206103599282010161034d565b6020919350806001915483858b010152019101909186926104f9565b6020925061035994915060ff191682840152151560051b82010161034d565b634e487b7160e01b89526022600452602489fd5b92607f169261032e565b50346101c35760403660031901126101c357610591610587611079565b6024359033611467565b602060405160018152f35b50346101c35760203660031901126101c3576105b6611079565b600554906105ce336001600160a01b038416146111c0565b6001600160a01b03169081156105ef576001600160a01b0319161760055580f35b60405162461bcd60e51b8152602060048201526005602482015264217a65726f60d81b6044820152606490fd5b50346101c357806003193601126101c357604051676765c793fa10079d601b1b8152602090f35b50346101c357806003193601126101c3576040519080600454908160011c91600181168015610736575b6020841081146104b15783865290811561070f57506001146106b2575b6106ae8461069a81860382611189565b604051918291602083526020830190611055565b0390f35b600481527f8a35acfbc15ff81a39ae7d344fd709f28e8600b4aa8c65c6b64bfe7fe36bd19b939250905b8082106106f55750909150810160200161069a8261068a565b9192600181602092548385880101520191019092916106dc565b60ff191660208087019190915292151560051b8501909201925061069a915083905061068a565b92607f169261066d565b50346101c357806003193601126101c357602061028d6112f6565b50346101c35760203660031901126101c357604060209161077a611079565b6001600160a01b031681528083522054604051908152f35b50346101c357806003193601126101c35760206040517f00000000000000000000000000000000000000000000000000000000000000008152f35b50346101c357806003193601126101c357602061028d611281565b50346101c357806003193601126101c35760206040516801236efcbcbb3400008152f35b50346101c357806003193601126101c357602060405160018152f35b50346101c35760203660031901126101c357602061028d6004356111f8565b50346101c357806003193601126101c357602060405160128152f35b50346101c357806003193601126101c3576005546040516001600160a01b039091168152602090f35b50346101c35760603660031901126101c3576108a6611079565b6108ae61108f565b6001600160a01b038216808452600160209081526040808620335f908152925290205460443593915f1982106108eb575b50506105919350611467565b84821061095357801561093f57331561092b5785604091610591975260016020522060018060a01b0333165f526020528360405f20910390555f806108df565b634a1406b160e11b86526004869052602486fd5b63e602df0560e01b86526004869052602486fd5b6064868684637dc7a0d960e11b835233600452602452604452fd5b34610bff576060366003190112610bff57600435602435604435610990611363565b8215610bd1578115610ba257806109b09115908115610b97575b506110bf565b6109ba5f3361139b565b476801236efcbcbb34000001806801236efcbcbb34000011610b83576109e6610a2e9160065490611102565b5f5160206115ab5f395f51905f525f525f602052610a2860405f2054610a23610a19610a1288846110f5565b928561110f565b8260011c906110f5565b611122565b90611102565b908115610b5457610a47600160ff196007541617600755565b610a5f835f5160206115ab5f395f51905f52336114a3565b6007805460ff191690557f00000000000000000000000000000000000000000000000000000000000000008015610b30575f808093610ac7610abe612710610aa885978a61110f565b04610ab5816006546110f5565b60065588611102565b91821015611140565b818115610b27575b3390f115610b1c575b60405191825260208201527fa8ff15eb642b39da3ab82bb74a87b76cc3e1aef2b82b70bc2a35458386db29aa60403392a260015f5160206115cb5f395f51905f5255005b6040513d5f823e3d90fd5b506108fc610acf565b50610b3d90821015611140565b5f808080843382f1610ad8576040513d5f823e3d90fd5b60405162461bcd60e51b8152602060048201526007602482015266042deeae88ae8d60cb1b6044820152606490fd5b634e487b7160e01b5f52601160045260245ffd5b9050421115846109aa565b60405162461bcd60e51b8152602060048201526007602482015266042dad2dc8ae8d60cb1b6044820152606490fd5b60405162461bcd60e51b815260206004820152600660248201526510ba37b5b2b760d11b6044820152606490fd5b5f80fd5b34610bff575f366003190112610bff576020604051678ac7230489e800008152f35b34610bff575f366003190112610bff576020600254604051908152f35b34610bff575f366003190112610bff57602060405161012c8152f35b34610bff576020366003190112610bff576005546001600160a01b0316600435610c893383146111c0565b60065491828211610cc0575f8080848194610ca48289611102565b600655828215610cb7575bf115610b1c57005b506108fc610caf565b60405162461bcd60e51b8152602060048201526014602482015273616d74206578636565647320747265617375727960601b6044820152606490fd5b34610bff576040366003190112610bff57610d15611079565b602435903315610d91576001600160a01b0316908115610d7e57335f52600160205260405f20825f526020528060405f20556040519081527f8c5be1e5ebec7d5bd14f71427d1e84f3dd0314c0f7b2291e5b200ac8c7c3b92560203392a3602060405160018152f35b634a1406b160e11b5f525f60045260245ffd5b63e602df0560e01b5f525f60045260245ffd5b34610bff575f366003190112610bff576040515f6003548060011c90600181168015610e8e575b602083108114610e7a57828552908115610e565750600114610df8575b6106ae8361069a81850382611189565b60035f9081527fc2575a0e9e593c00f959f8c92f12db2869c3395a3b0502d05e2516446f71f85b939250905b808210610e3c5750909150810160200161069a610de8565b919260018160209254838588010152019101909291610e24565b60ff191660208086019190915291151560051b8401909101915061069a9050610de8565b634e487b7160e01b5f52602260045260245ffd5b91607f1691610dcb565b6040366003190112610bff57600435602435610eb2611363565b341561102a578115610ff95780610ed19115908115610fee57506110bf565b476801236efcbcbb34000001806801236efcbcbb34000011610b8357610efd610f319160065490611102565b610a28610f0a3483611102565b915f5160206115ab5f395f51905f525f525f602052610a23610a1960405f2054809561110f565b908115610fbd57610f4490821015611140565b610f56600160ff196007541617600755565b610f6e81335f5160206115ab5f395f51905f526114a3565b60ff19600754166007556040519081523460208201527ff6f342132c7de5e5a1e99c8efae544c94731f3ff093f5c3c97c6973d9415cdfb60403392a260015f5160206115cb5f395f51905f5255005b60405162461bcd60e51b815260206004820152600960248201526810b7baba2a37b5b2b760b91b6044820152606490fd5b9050421115836109aa565b60405162461bcd60e51b815260206004820152600960248201526810b6b4b72a37b5b2b760b91b6044820152606490fd5b606460405162461bcd60e51b8152602060048201526004602482015263042cae8d60e31b6044820152fd5b805180835260209291819084018484015e5f828201840152601f01601f1916010190565b600435906001600160a01b0382168203610bff57565b602435906001600160a01b0382168203610bff57565b34610bff575f366003190112610bff5760206040515f8152f35b156110c657565b60405162461bcd60e51b81526020600482015260076024820152662165787069726560c81b6044820152606490fd5b91908201809211610b8357565b91908203918211610b8357565b81810292918115918404141715610b8357565b811561112c570490565b634e487b7160e01b5f52601260045260245ffd5b1561114757565b60405162461bcd60e51b815260206004820152601a602482015279125394d551919250d251539517d3d55514155517d05353d5539560321b6044820152606490fd5b601f909101601f19168101906001600160401b038211908210176111ac57604052565b634e487b7160e01b5f52604160045260245ffd5b156111c757565b60405162461bcd60e51b815260206004820152600960248201526821747265617375727960b81b6044820152606490fd5b801561127c5761123790610a2861120d6112f6565b915f5160206115ab5f395f51905f525f525f602052610a23610a19610a1260405f205493846110f5565b7f000000000000000000000000000000000000000000000000000000000000000080611261575090565b90612710611272611279938361110f565b0490611102565b90565b505f90565b6112896112f6565b5f5160206115ab5f395f51905f525f9081526020527ff043c50fe795c69f30b8ff78b84032dc53a9d87ca283ae10a1dacfbb648e83ef5480156112f057670de0b6b3a7640000820291808304670de0b6b3a76400001490151715610b835761127991611122565b50505f90565b476801236efcbcbb34000001806801236efcbcbb34000011610b835760065461127991611102565b801561127c5761127990610a2861133d6113366112f6565b92836110f5565b5f5160206115ab5f395f51905f525f525f602052610a23610a1960405f2054809561110f565b60025f5160206115cb5f395f51905f52541461138c5760025f5160206115cb5f395f51905f5255565b633ee5aeb560e01b5f5260045ffd5b8115611463576001600160a01b0381165f8181526020819052604090205415611413575f5160206115ab5f395f51905f52036113d5575050565b816113df91611590565b5f5160206115ab5f395f51905f525f525f60205260405f205461140481600254611102565b908115158061145a575b611418575b505050565b61142592610a239161110f565b8061142d5750565b611445905f5f5160206115ab5f395f51905f526114a3565b565b634b637e8f60e11b5f525f60045260245ffd5b5080151561140e565b5050565b91906001600160a01b03831615611447576001600160a01b0381161561149057611445926114a3565b63ec442f0560e01b5f525f60045260245ffd5b6001600160a01b031680159291831561154e576114c2836002546110f5565b6002555b6001600160a01b03168015929091907fddf252ad1be2c89b69c2b068fc378daa952ba7f163c4a11628f55a4df523b3ef9060209085156115395780600254036002555b604051908152a38115611531575b508015611525575b61144557565b5060ff6007541661151f565b90505f611517565b845f525f825260405f20818154019055611509565b815f525f60205260405f2054838110611575578390835f525f6020520360405f20556114c6565b91905063391434e360e21b5f5260045260245260445260645ffd5b906001600160a01b03821615611447575f611445926114a356fe00000000000000000000000011111111111111111111111111111111111111119b779b17422d0df92223018b32b4d1fa46e071723d6817e2486d003becc55f00a2646970667358221220c6a87d6b161d6f4131c3c5305991195aabb9394276581876fac2d37e759367a364736f6c63430008230033",
  "linkReferences": {},
  "deployedLinkReferences": {}
}